:20000000009000202D670200A339020097000200A3240200A3240200A3240200A3240200FF
:20002000A3240200A3240200A32402006B680200A3240200A324020051F5010085410200EF
:20004000A3240200A3240200A3240200A3240200A3240200A3240200A3240200A324020058
:20006000A3240200A3240200A3240200A3240200A3240200A3240200A3240200A324020038
:0C008000A3240200A3240200A324020019
:04008C000000000070
:20009000F0B58DB00246FF20123010180B900B78182B00D905E14F20800010180890592055
:2000B000800010180990192000011718481C0A9015466735164684361446EC3498000C92CB
:2000D00001A210580C9A8746C9010000530200008902000097020000B3020000B3020000E5
:2000F000B9020000BF0200000B03000025030000670300007D03000083030000B302000019
:20011000B3020000DF030000B3020000EF030000150400003D0400003D0100003D010000BB
:2001300045040000B3020000870400000A4609990A97142B03D16879002800D11BE20B930B
:20015000164650789278120213180D464B82F078327912021418CC827079B2791202101811
:200170000882F079317A09020818A88282B2E989914200D301468AB2A920000182420E46CB
:2001900000D806460A98807A04280C9A00D00E46E98B0891EE83042800D08CE110461CF050
:2001B0002BFD0246A88BAA83111A481E814107910A98807A6B8A88E10A954878B070301DAE
:2001D000891C0224494F2246B8470146B01D09902246B84701463046083007902246B8473E
:2001F000014630460A3005462246B8470146B0784000B070B0884000B080F0884000F080A7
:2002100070890001708130462246B8470C9A10893188081A80B23649884228D80998008848
:2002300007990988491C414348002988814200D841E20020D08301200A99C876089908704F
:20025000E0E2089C1046623005220A9925F078FF014630460E30022225F072FF0C9A108906
:20027000F189081A80B22249884200D888E101200B998872282022E20A98007801210B9A3E
:200290009172D072BEE20A99607DC00700D07DE11A206073207B0D21012863D11046FF224A
:2002B000B0E10B980373B4E00120A073AAE22246089C0A9800780E38082800D9A2E28000B7
:2002D00001A108588746C046050300009107000015080000150800009F070000150800009C
:2002F000A507000015080000AB07000051610200FE7F00000320107584E210460A991446E1
:200310001CF0D2FB6879002800D134E1204618F05DFC81E010460A991CF0C6FBA07D0007F3
:20033000099B01D4FD48D860FD48407880060C9800D467E219891B290BD159891B2908D1B2
:200350002921CA009989914203D1D989914200D158E2142107E0002068712870012121730D
:2003700020800B21104619F057FC4BE20120E07348E22E460B9C2078012814D04878E07054
:200390008B2040001018891C02252A4625F0D8FE01462320C0000C9A10182A4625F0D0FEA8
:2003B0000C9A012020707079002800D179E1A078002800D026E26078002800D022E2104658
:2003D00019F0C6FC00282AD00120A0701AE209960A95607D800700D517E10F2017E0089CBA
:2003F0004878099B187088785870E87B012800D04FE1287C01460F39022900D361E1012019
:200410006073FFE1607DC00600D546E112200B99087310461CF07AF8002800D0F2E1C8487A
:2004300000780121890311F069FCEBE1002008990872E7E1A07D0922104200D136E18878CF
:200450004A780240072010404870797B0140F97200D15EE1481E084200D15CE1480700D5C7
:200470009EE10220020600D155E1084200D098E1C0B24008F6E70A9B4A788878824208D18E
:2004900007201040187000D15CE1521E024200D1BAE118211E250C9C20462A461FF078FCA2
:2004B000A17900222846134610F0E0F9387B402101433973A6E1AA89A24200D32246A98B3F
:2004D000AA83541A611E8C4107942C899C4200D31C46298B2C83631A591E8B410693B1B2A3
:2004F000089BCE1A711E8E410A990F46897B012308931BF081FE844201D2288B04E0AA8B59
:20051000B97BB87A26F09CFE07990E4378806B89288A834200D3034606980643698B6B837C
:20053000581A421E90418B4203D9397880220A433A7006430B98142814D1002E07D0AA8BCE
:20055000298B0C988079EC8B009412F0EDF815210C9816F0B5FE002800D053E1D9480078F0
:2005700008995FE73878002E01D00821084320210143397046E101200B9988723D209EE072
:200590000020D0830120307320703BE1002068712870012020741046B0300825CC4E174648
:2005B0002A46B04701463846B8300222B04701463E46A83630462A46C54B98470B9030466D
:2005D000294624F00BF83D469C35042628460B993246BF4B98472846314623F0FFFF384620
:2005F000A03025F03DF93846983024F025FDB948018880220A430280207B0421012866D139
:20061000FF22384617F086F9FCE048788A7812021518089E3582C8780A79120210180790D3
:20063000708248798A79120210180690B082C8790A7A12021018F0824A7A059232768A7A76
:20065000CB7A1B029A1872830B7B4F7B3F02FB18B3838B7BCF7B3F02FB18F3830B7C4F7C3B
:200670003F02FB1833848B7CCF7C3F02FB1873840B7D4F7D3F02FB18B3848B7DC97D09028A
:20069000C918F18491490978890622D41A250C9F37E0002024F012FEB4E010461DF086F85A
:2006B000BAE60120A0723D20E072ABE016200B9908730C98AEE601200B9988723B20C8723C
:2006D000A0E0162800D09DE0387B0121F0E6384689E031461C310C9F3B8992B280B2009034
:2006F00001930598029003920491A9B2079882B2069883B2384614F084FF002800D19DE081
:200710001E25607D40070DD40F200B990873384680E6B87A45E0084644E0C04648084808E0
:20073000106C00200F2138462A461FF031FBB38A728AB979F08A009028461CF067FD61E020
:20075000876E0020287C16283C4606D1A27A0C9881790020134610F089F80120E0730220EF
:20077000A071A07A099F20713D8BBA8BA17B2646012423461BF040FD854237D2388B3AE0ED
:2007900001202073507DFD21014051753AE00020207237E038781221EAE6387B122187E6BA
:2007B0000420F872C1B2042905D10C981CF024FA09998883F87AC0B224F09EFA38713D46EE
:2007D000099F3C8BBA8BA97B26F03AFD844201D2388B04E0BA8BA97B287926F031FD0C9AB0
:2007F00068801721104616F06BFC0BE0BA8BB17B307926F025FD708008980470307B4021B9
:20081000014331730DB0F0BDF872CA7809790902891839810C9A1289891A89B22A4A91427C
:2008300000D924E53C460121B9710428099F9AD10C981CF0E1F9B883E07A94E70020099C5A
:20085000A0800220A070738AE380B18A2181F08A6081BA8ED61D26807D8E6D08AB4209D176
:20087000914207D10C99C98E0909884202D110210C98B8E70A99C87B012808D1087C0F28FB
:2008900005D1FC210C9C204619F0C6F90AE0087D002802D0087C1A280ED1FC210C9C204646
:2008B00016F00EFC089DAB8A6A8A298AA079EC8A009410F0C7FCA5E70F204876FE210C9875
:2008D00051E5C046876E0020FE7F0000606D002051610200786E0020F0B591B0044680786B
:2008F0000025102800D998E3800001A108588746450900002B1000002B1000002B100000E9
:200910002B10000099090000B10A00002B1000002B100000DD0A00000B0B0000170B00009A
:20093000450B00002B1000008B0B0000DD0B0000171000006078002800D06EE326F074F8D4
:20095000079026F043F9089026F03AF90BAC20700226102730463946079A994B984703209B
:200970003946089A964FB847042001212246B84720783043032800D04FE301201DF036FE1B
:20099000024606200146B5E06078002800D044E3277B60890890E178002500950126314038
:2009B000201D09AA2B4610F0E7FB00286CD13E46083E701E864109A8007823F0FFFE0446DD
:2009D0008048807D800026F0A3FB0790002800D1D6E17C488078801E4242424109A806901F
:2009F000017800920898059422463B4619F010FD0BAC002714222046394625F0BBFC069841
:200A1000007806210691484324301021224624F0EFFC002818D10BA8FF21102223F08EFF63
:200A3000002811D109A801780698484325300BAC22461032042124F0DBFC01210598014083
:200A5000089822461CF01AFB5E48817D09A80078E0308906090E079A24F0CAFC002800D166
:200A700092E15848C07D002807D10598800704D555480178089822F0D7FB09A800781AF04C
:200A9000C5F9079826F040F8002E00D1C5E24D488078022800D0C0E208981AF037F8BCE255
:200AB000A0881FF055F826F0EFF9002800D0B4E2444C607B012800D0D9E023F099F9002133
:200AD0006173606A227D25F055FCD7E0E1780023009301252940201D0BAA10F04DFB0028AC
:200AF00000D09AE20BA801780620484325300C340421224624F0E0FF8FE26078002800D166
:200B10009BE0002563E2012525F0D8FC002800D183E22C48C06A002800D189E00668002ED7
:200B300000D185E0637B227B618920690090E01CB04772E2277BA48820461EF067FB0028DE
:200B500000D192E0054625F0B9FC002800D08CE069790023009301263140A81D0BAA10F01F
:200B70000BFB002800D1D1E016488078002800D103E169790022204675E06078062800D0ED
:200B9000ECE0A0881EF042FB002800D1E6E00D49497C491E032900D9E0E0890001A251582B
:200BB0008F46C046C50B00005D0D0000530D0000670D00004179A088002212F0CFFECDE0BC
:200BD000C95A0200C8770020276C0020FA4EF06A002806D04368002B03D0A08800210A46EC
:200BF0009847A088B17800292CD01EF00FFB002800D112E2064627460837A07AC00725D0BD
:200C100070790022009201210140B01D0892134610F0B2FA002819D07079022816D3B8880B
:200C3000800513D4A088032123F0D7FF089DF4E16089012123F0D1FFEFE1A079C00723D1F7
:200C50000025C9E1052123F0C8FF0EE0DA48807B022805D1B878000702D4A0880321E9E781
:200C70007179A0883A4612F079FE0125D5E1A07C002839D012F0D6FB0020A074502022F0A7
:200C9000DBFC1CF003FCC8E109A8002508262946324625F06FFBA0881EF0B8FA002845D02A
:200CB00007466069002815D006960790113000210622089023F042FE002800D1A4E00026B6
:200CD00006220798314623F039FE002800D183E06661069E78790121014009A88171B91DE8
:200CF000062225F03EFBB3E0207D0026C1B28E42C4D2616A895D012906D1F0B20BF0BCFD37
:200D1000606A00218155207D761CEFE70C2007400BA8007823F052FD02460C2F4AD0082F29
:200D30004ED0042F50D1D0074ED122E723F036FD002800D19DE0CB480078042110F0DEFFE9
:200D500097E0CA4800210A4601F0C4FFA08805211CF04EFF02E0A0881FF076FBC248C06A70
:200D70000125002800D158E14368002B00D154E16278A088022198474FE10521204662E726
:200D9000042024F09BFA48E1079C204623F026FDB548807DC1B28F4200D362E621880029E3
:200DB00005D0A278089823F027FFAF48807D241D7F1CEFE7D00700D1DBE6100704D4D8E69F
:200DD0000920024200D1D4E6AB7C0BA801780096204619F01DFB48E705970798007C012193
:200DF0000140079137467F1C08980770009607993246334610F0C0F9002801D13806F2D100
:200E10003806059F00D163E76269002A069E1FD0107C0121014009A881710892164611366E
:200E30000622314625F09DFA7879012805D138460C30B91D062225F094FAB81D0622314698
:200E500025F08FFA0898007C022101437971069E3879FD210140A279500802230340C81808
:200E70003871110702D4DF21084001E0202108433871A079064009A9CA7932434007C00F8E
:200E90001043C8716169002922D00BAE102730463A4625F066FA3046394623F09FFB744818
:200EB00000780D27734EC1B28D4211D23168C9190A460D3A1278FF2A07D00BA8102223F0FC
:200ED0004DFD012805D06A4800781E376D1CEAE7FF2509A881790026009610AA334610F023
:200EF0004BF9FF2D1DD034281BD15F48C07C012864D0002815D11E2068435E490A68115C80
:200F1000002500951018401C10AA2B4610F034F9002806D110A800780BF0AEFC002800D15E
:200F30008AE009A88179009610AA334610F024F9002824D01EF0ECFD10A9087010A8007832
:200F50004949097D884218D2A26825460C352ACD0F69009501910297039609A90BF022FA6E
:200F70000546A08815F09AFB002D59D010A800780BF082FC1CF08AFA25E0152523E06069BA
:200F90000028DBD010A8017806204843233010210BAA24F02DFA0028D0D10BA8FF2110224A
:200FB00023F0CCFC0028C9D109A98A790120104023F0A8FFC2E7C046C8770020A088052148
:200FD0001CF016FE0125A0881EF0C2FD60780B2802D1A0881FF038FA234EF06A002812D0AA
:200FF0004368002B0FD06278A088012198476078002808D1A079C00705D0A088F16A4B6865
:2010100003212A469847012523F0C8FB002804D014480078042110F071FE284611B0F0BD11
:20103000A0881149497D002902D01EF091FD01E01DF068FC3546C9E71CF028FA1EF068FDA3
:2010500010A90870A1680891E1682369626900292F4600D00F69009201910297039509A920
:20107000089A7BE7276C0020C877002009040000B86E00204C6E0020F0B591B00746FF25C6
:201090002E4612368B204100052080013B18592082001920000110903C466734002F0C93DF
:2010B00007D100200F910E9224F008F90E9A0F990C9BB819099078180590B8180A9010983B
:2010D00038180B9038467C300F903846EC300D900A35781908903846B83007903846B03052
:2010F00006903846CC3004903846A03003903846DC300290981D019026460F3610940E9600
:20111000207D0025002800D159E2207C811E152945D8880001A108588746C0462915000098
:20113000C711000085110000D3110000FD11000057120000C71100006B120000C7110000A9
:20115000831200009F120000CF120000D7120000FD120000471300006113000091130000EE
:20117000C71100009F130000C7110000C5130000EF1300003078012800D0E0E1FB48C07A44
:20119000002800D1D2E100206071FC2125F06CFFB8790699079A10F0D1FB2B46B0E71E465C
:2011B000FD2800D128E1FC2800D108E2FE2833460E9E00D117E200201D4624F07FF82B46AD
:2011D0009EE73078012800D01DE1E848C07A00280D9A05D000205060906001200F990876C6
:2011F000907B012800D0A1E106214CE03078012800D0A8E1F348C07A002800D196E1788CF3
:20121000F88326F06BF801241098047038461BF06BFE10984471109C0D9D697D1020084086
:20123000297B012900D050E100280C9E06D000207071B0793168490819F0DEFAB8790021E0
:2012500015F0BEFD50E11E4638461BF05FF9012800D0B4E126F042F84AE13078012800D09E
:2012700075E1D848C07A002800D15FE1788CF88303E13078012800D0D7E00D98C07B0128B1
:2012900000D053E1FC2125F0EFFE2B4638E73078012800D05FE109990878012800D093E11B
:2012B0001D464878012800D031E105980388CA78B97940880090002019F014F827E1307817
:2012D000012849D04EE13078012800D050E10D9C207D032800D1EBE0022800D0B7E1B979EA
:2012F0000020089A1C4617F0F5FD1FE03078012800D045E1587A012800D0A8E00A9800788E
:201310000F2804D000201C4623F0D8FF2346002058720F9C238AB9790A984078E289648AB6
:20133000240900940C9C520811F070FC25F0D6FF2346109CE4E63078012800D024E1587A2C
:20135000012800D095E00A9800781028DAD1DEE73078012800D01BE1D248C07A00280CD058
:2013700001241098047000200F99087638461BF0BBFD10984471109C0C9BCA48807A7AE07F
:201390003078012800D007E1C648C07A73E03078012800D004E10B9A1078810670D4810713
:2013B00000D4C3E000210A9A9171FD2108400B99087062E03078012800D0F6E00B9A107B74
:2013D000410615D4C10700D095E0810700D448E1FD2108400B990873B9791A2092E0307830
:2013F000012800D0E3E00B9A107B410600D49DE0BF210840107340E00F980179FF223846CE
:2014100016F088FA1DE00D990878012800D112E14878002800D1D2E01E4602AA07CA1FF0C9
:2014300067FC01200D99087062E01E46384618F05BFC012800D0C2E000200F9908760D99F0
:20145000C87301200E99087033460E4658E6187A01280ED1002018720F9A1D46138AB979D7
:20147000D089528A1209009242081A2011F0CEFB4DE00F988079002858D038461D4647E007
:201490001D46DF210140117001070DD5D721084010700A9C638BA28B218BB879E48B0094CC
:2014B000109C0C9D11F040F900200A9988712EE0B9791A20089A1D4617F00CFD002020758D
:2014D00025F00CFF2B46109C1AE600280C9E06D03068420874483946019B25F0B9FBB87964
:2014F0000021012214F06EFD002028742873E88133460E9E04E6FE2108400B990873B979A2
:201510000A98407800221D4613460FF0AFF9384619F0AAF82B46F3E53078012800D085E064
:201530006048807A002801D0162103E025F0DCFA45D12221384622F033FD01253FE038461F
:2015500013F0D1FD37E038461BF080FB33E0384617F03CFB2FE0012009998870384618F070
:20157000F7FB28E038461DF0B7FE24E0546B0020384619F0DDF8307001200D9908751BE003
:20159000384614F02FFE16E0384614F06FFE12E0384619F08AFD0EE038461CF0DFF80AE06E
:2015B0001421384615F08CFE05E0162100E01721384610F0D9FD30700F9908884880284643
:2015D00011B0F0BD546B002025F08EFAF7D1059C23880998C278B9796088009022252846C3
:2015F00018F080FE47E00F98017908460C38082844D8800001A210588746C046311600008A
:201610008D16000031160000971600008D1600008D1600008D1600008D1600003116000050
:20163000FF22384616F076F9012002E0384619F06BFD3070C3E738461EF006FD0128BED103
:2016500001200E99087000250D988573B7E725F04BFAB4D1B97922252846089A17F03AFC35
:2016700009E025F041FAAAD1B97922250022284613460FF0FBF8384629465CE7002528468F
:2016900023F01CFE9BE7FC21FF2238461C4616F041F9238AE289A189B879648A00940FF039
:2016B000D1FD8CE7546B00202D780100F0B58DB015460791064601200590341D50040C9636
:2016D000089407D42088A17809044018002703970297F0E00B9522F0B3FA02902820205C7E
:2016F0002021F94D6854F948F9490160F949FA480860FA4FB88DE88122F0B3F8B8861020A5
:201710006871708821F06CFE07462A20205C1FF097FB002800D082270024032F039400D05B
:20173000B8E0099422F07AFF00276F61288125F01FFD22F083FF6881706B018BE54AD182A2
:20175000418B1183818B51832421415C8907C90F51820830022421463A463B460FF05AF904
:20177000002824D0716B8A68937B9A18D27B0F2717400A4624320123062F15D803260A9620
:20179000BF0002A6F6591F46B746C046E5170000C7170000B9170000B9170000B9170000D1
:2017B000B9170000E117000000270A9712E003978327099C6EE0CC8BC64E74840C8CB4842D
:2017D0004C8CF484147801273C40B482052400E01F460A9421242F55022800D3002302202C
:2017F0000A9C204045081D4002D083270C9E33E0BB4B1C80537803273B40B64C238253786C
:201810005B0804242340B54E33855378DB06DB0F738500280CD048685278D1070C9E0CD1A4
:20183000B0495307DB17184019402240520007E00020AB4988810C9E09E0AB49491C0022DC
:20185000A74B998119461E3120F06AFAA4490A98C00703D100200882099C18E0706B2522B7
:20187000825C930700680AD40A949E4C5307DB1718401C4023460A9C1440620002E0FE4A23
:20189000531C0022099C0B829E3120F049FA012045400395089A1088917809044018FF214D
:2018B000090288433902401810800F2F059900D821464F000B9DFF210902084003220A92D9
:2018D000120290423ED10092019101200690000204903030EA4A0799014248D02846104045
:2018F0000990E648C06A042830D30B95002020F099FB80B2461D35460A988543D84C6069ED
:2019100029461DF095FB224604465069844202D0546108200743002C1AD0B108E0892646DD
:201930001036301824F01CFBE0893118CC4AD279CA704019E0810C9E25F01AFC0420074394
:20195000099DCEE7002F00D083E186E1C44A06E0CC4806990160852050710C9E0B9D907989
:20197000002804D0C848C168B06B1CF05FFF049929406806C40F0491002903D02220B84982
:20199000069A0A543C430799C80704D10804089F3CD4039867E00520B8490860B4480688B9
:2019B000042E089F0BD1AE4840214171AF49896C8069081A0C990863032000BF00BF202070
:2019D000A749085C002831D08879002805D0AE48C1680C98806B1CF029FF20F0D9FF042E80
:2019F000009A9F4B2BD0A80527D42220185C411E8841F11F4A424A4102430499481E8141A1
:201A10001143012933D11620587114E094484079102803D19648008823F082FF3988BA78B3
:201A300012048918019A9143000215E003200E4600BF00BF3346009A01E0172058713888D0
:201A5000B978090440180199014091420DD18F490840597909020C9E08433880000CB87076
:201A7000022004430020069002E0002006900C9EE80303D525F07CFB8148054006980028D2
:201A900000D1DCE00B95202075490A90085C010630D42D21755C052D00D900250721084043
:201AB000801E05282CD8800001A108588746C046011B0000FD1A00000D1B0000091B000073
:201AD000151B00001D1B00007468002040140840D6BE898E3C200940005555550620094038
:201AF0008A2009400A8000000A80FFFFE80707D026250DE005460BE0E80701D0272507E0AA
:201B1000252505E001200540263501E06D082535284617F015FA002813D005998E0301272F
:201B3000394602F001FD20F065FA0B98304210D12F200C9E305C002823D0554823F008FF6A
:201B500021E0412040023978081838800220044374E00C9E304602991AF0FEFE0F2814D8A7
:201B7000494EF1680C98806B1AF0CCFE222100223B4B5A549871307F80070ED024F09AFAA4
:201B90000BE024F09DFE102807D30002089A1178081810800220044351E036490020888368
:201BB000402D01D24020284369B2002901D57F2028402F4948862A490979002904D00006AB
:201BD000294941402748016021202549085C314E00280BD021F0E0FC2548808D00010A9992
:201BF0000840316801432C48084303E0F903306808433843306024F099FC022000BF00BFDB
:201C1000204805210160280614D40A99144A505C253DAF40B84350542F210C9E715C002922
:201C30000DD000280BD128200899085C0A990C4A505404E000200A99094A50540C9EA007DA
:201C500001D4274609E01048C168B06B1CF0EEFD274620F09DFE24F079F938460DB0F0BD30
:201C70007468002040140840D6BE898E3C200940062009408A2009400A80FFFFA011084089
:201C9000FFFFFEFF30100840B8690020FF00FF00881300004400084011810000F0B58DB0D7
:201CB000012630461FF004FF012800D004E2904D287825F048F80746002802D1002023F039
:201CD000FDFA00200A903872381D11F03DFF03F0A7FA002800D100E10446992040003146DF
:201CF000261820462E300C90099161710720079012F01FFCA079B8722878F1490870F14920
:201D10004878401C487040200FF096F82060B86C4078C0060CD5786C4C30002113F0C2FAAF
:201D30000B21C9017A6C126B51182268D160811D0B9708784006C00F30704B20800020187E
:201D50000F46891C0622E04DA8472046243039460E310422A8472046283039461231032203
:201D7000A847787D0C990870204630303946163102263246D44B9847204632303946183198
:201D90003246D14DA8472046343039461A313246A847A08E60842046363008971C37394664
:201DB0003246A8470C99087840000870208E40002086608E40006086E18E0901E186628C59
:201DD000521C83B253435A0089B291427BD9000479D027200D21C0004901059120180690CE
:201DF00020462C30049020460C9922F076FF0525A581204622F06BFA26466236089F394694
:201E10001E3130462A4624F0ACFA2325785D40090499087022F072FD60820B99098B401A53
:201E30000699C8800495785D1F2101400C988173204631461CF0FEFA0B98806C4078C00636
:201E500003D5A248006825F043F9059820180190A0793821059148439D4909689D4A0A5066
:201E700008189D490A9D456081600C302C21009123F01AFBA0791C277843984909680E184E
:201E90001221304623F010FB7561B561059D904B0B2003907082A079294641431A6852185A
:201EB000029778431E468D4B1B6818181063306840188B4941638B488078400611D4019865
:201ED0000168009E19E08B48007880210FF016FF3B21204622F064F8EEE0812025F010F935
:201EF000EAE0019A08980078800603D57F4902E08D6E00207C49009E1160204688470146E2
:201F1000A0792A464243724B1B689A1891550C9AD1720B99896C4978C9061CD52E46CD2166
:201F3000490065182978002904D1002023F0C6F92978A0792A791EF0F3FF204621F0D3F89B
:201F5000A079354670436249096808180B99897D2D228154A0790146029E70435F4F3A681D
:201F70001018099A0274626A4261A26A8261084617F038FAA0791421414346433868801997
:201F90005B4A1368585010684018A0663868801908302067524EF01C152123F085FA7F2088
:201FB000B0700A9830805348007804210FF0A6FE208E861CA661608A7043192109011DF07F
:201FD000A7FF411C61614C494E432168CA68B2184A4BD218101A8860A17969433C4F3A68FD
:201FF00051188A88099E3243FE239A438A80C861A079684339680F18F969206801610C998C
:2020100009783D4A5143626952005118039AD2018918049A120189188AB2069B1A60FE7165
:20203000F98537490A7C4B7C1B029A188B7CC97C0902C9180904891809684760608E4843FF
:2020500064211DF065FF2C4948432C4940189130B86225F0DCF8002809D0FF20023020185F
:202070000078000703D50E21204617F0D5FD254807990170A079134988700B9D28461BF07F
:20209000A5FFA2790021284618F020FBA079059E70430F4B196809181B4A8A6121681B4A16
:2020B0004A6119680818212109020161A0797043196808181621416101F014FE0DB0F0BD62
:2020D0008C6E0020486D002073630200E87E00201C6E00200410000021210000246E0020F1
:2020F000546B0020106C00200DCB010045DF0100686E0020876E0020C4090000BFFAFFFFC8
:2021100008A40200AB6E0020E9BD010061CB0100F0B587B016460546041D500405950294CC
:2021300043D4172000010142019100D193E001200090000431468143039100200690F24CAF
:20215000F2480068042800D28FE0049600201FF069FF80B2451D2F46FC4807406069394653
:202170001CF066FF06466069864204D066610820069901430691002E70D0A908F0893546B1
:202190001035281823F0ECFEF0892918E279CA70C019F081059D286B083021F0E1FD042094
:2021B000069901430691039ECAE7049621F048FD01902F6B7969E64800910160B869000203
:2021D000E4490860E44EB08DE449C88121F049FBB086E3482646002484810397788ADD4968
:2021F00088801020DD494871688821F0F9F806902820305C16F0A4FE822700281ED00646A9
:202210002D20285C1EF01CFE002816D1069F032F13D1029D28350398007C4142414130465D
:2022300002F082F91FF0E6FECD4844852857C1B2402900D2B8E02146B8E0059D049E38020E
:20225000029C2178081820800F2F01D8002000E00120470085E00020069010E0C448009948
:20227000016085206071059D049EA079002804D0BC48C168686B18F099FD029C01998804BC
:2022900039D50496BB484068B44F7989081A3E8D0390B04223D27C8D286B21F019FD002884
:2022B00010D0022101728189491DB34A1140761A396A814202D1002038627862641E039860
:2022D000B042E9D3039886420BD1002C09D47C8503983885102006990143069106E0049E6D
:2022F00009E0A3480121016084207871049E029CA148001D06430120C5037006C70F069888
:202310000743681C0199014223D0032000BF00BF904880880599096B488202248F484079FC
:20233000102810D1019828408B48008807D1401E81B2062906D800B29049085C03E023F0BD
:20235000EFFA00E0102027430002029C217808182080B807059D04D58248C168686B18F009
:2023700025FD0320000261780902814213D1F00306D5286B083021F0F3FC012000048643F4
:202390007D48001D064206D0286B0023D943734A20320EF03FFBB80703D520F0F9FA23F067
:2023B000D5FD384607B0F0BD40221143059D6B4A7F240028049E01D4084600E020406649CD
:2023D00048861179002904D000060099484060490860FF205F49C881284601991AF0BCFA88
:2023F00007460F2800D92AE7686B002500282946039F5A4B3DD05B49C968594A516184705E
:20241000002141700278D20713D1524A118551859185D185118651869186D18611875187E3
:202430009187D1874E4A118001758160C16001611BE0017A474A1185417A5185817A9185DA
:20245000C17AD185017B1186417B5186817B9186C17BD186017C1187417C5187817C9187D0
:20247000C17CD187017D3E4A11800078022101404908997102980078012828461C4604D109
:202490003848C0680599C969081A019021F084F822F0C4F8656120810598006B083021F0EE
:2024B0005FFC22F0CBF8608101200004397C00292B4604D0798A18220A405342534186433A
:2024D000264A15625562956220320221384606920EF0A0FA2048808D0001202101402248D2
:2024F00002680A43214911430160387C002808D0059DE98D019840180327012808DB3A4683
:2025100007E00424059D11E074680020CC1108401322002900D01746032F00D08FE60029BD
:2025300000D108460E4988800324039F23F0FEFF022000BF00BF0E4804600023D94338461D
:20255000069A0EF067FA032779E6C046FCFF0100401408403C200940062009407468002035
:202570007C200940B86900204400084051A1000030100840CC110840FCFF010054A8020000
:20259000F0B58DB0064600250C95002802D1002022F094FE776C0CA930460FF04FFB0028F9
:2025B00007D0B06CC07C7F2805D1D4480078B0750CE007249EE140B2002123F0EDF9B075DF
:2025D000C0B224F000FC002800D1DDE0304632300490391D3C462C34384660300A900791CF
:2025F0008D700D80C6483860C648B860FD7138460C302021019122F057FF07202070601CDF
:202610000F2122F051FF0B96B07D19F084FAA0700121F971079A108808910843FE21039157
:202630008843B16C497A1080217024F065FD099565707D2149014618FE610B98807B012869
:2026500001D10898E0703846803007903846B83005903946643138463C307863B9632A21A8
:20267000009022F021FF0998B866F86638677F200A9988710B980661A3480078049EF0731F
:20269000A2480078002812D030780399084002280DD19F4C20680D3023F0BBFA002806D1B3
:2026B0000B9820302168C91D062223F05AFE3078411E884140000A9E3178FD220A40101823
:2026D0003070384654300B9C20340625914B21462A469847099830770697079F0898B8802D
:2026F0008D4878800698883021462A46894B9847FD71069F0599089808818748C8800B9A87
:202710000998087030780E464001402102910840001DB0723846C43021462C4615462246CA
:202730007C4B9847F472A87B012801D004282DD10C200799C8710A462C460A9D28784001E7
:20275000029908403E46049F7978C9014018401C907130468E302C3406220992214623F01E
:2027700000FE78783746089908402978039A11400818287030465A302146099A059E23F0EE
:20279000F0FD079B614D6AE01224B3E0E86C002810D0C11C0A78497809028A180AD022F0C4
:2027B000D7FE8E3023F0DDFD079AD079E96CC9784018D071286D00280FD0C11C0A784978B4
:2027D00009028A1809D022F0C3FECA3023F0C9FDF07A296DC9784018F0720A9B5878FC2130
:2027F0000140A86C807C032202408918A87B5970022800D0099C0328079B00D102240A987F
:20281000007840010299084000199871A86C807C0399014002290FD1404909680A794B79B1
:202830001B029A188B79C9790902C918079B09048918091F009A1160022108430328334DEB
:202850000DD13648006801794279120251188279C0790002801800044018001F38643C468B
:20287000B03439467431D879801D1880F07A801DB0802B488078400606D59879019A1043F8
:202890009871B07A1043B0723E464436304623F06BF83046214623F067F821F093FB014661
:2028B00038464C3023F048F81E48B8610B98406DC178007900243C6102227A61000241181F
:2028D00002D01948484300E01848B8622878002804D00A9A50781C21014307E00F480068A1
:2028F00019F03EFF0A9A5078E321014051700C980F49818020460DB0F0BDC046906E00201F
:2029100001100000BD160000467F0020806D00204C6E00207363020003020000E06D0020AD
:20293000106C0020A1F90100409C000000204E00AC0D0000F0B58DB00446C26A016C1EF07A
:20295000BBF9E16F4A1C904201D93526AAE1002813D08800226C17180837891C384623F0A6
:20297000E0FFA168384623F03EF9002807D0E56F691C884205D9C62694E1532692E16C2638
:2029900090E121786626022900D28BE1052900D988E101260329334600D30023216C0A68F7
:2029B00032405A400C968026A2510990E06720463A460B4614F002FD20784000001F0C9F04
:2029D00039468140A151216C20460A461EF0F4FCE567E16C20463A4623F03CF9A36FE56F47
:2029F000626EA06EE16C0095B04DA847A36FE66FA26EE06EE16C0096A847A36FE66FA06E0F
:202A1000E26EE16C0096A847226B216F20461EF053F9E56FA84201D93C2643E100280FD002
:202A3000A36FE26E216F606C24F04EFC626B216F20461EF041F9E56FA84203D9652631E1A8
:202A5000C3262FE1064600280FD0A36FA26E216FA06C24F039FCE268E16E20461EF02CF9E1
:202A7000E56FAE4203D95C261CE156261AE126468036A36FA26EE16E206F24F025FCA36FC7
:202A9000E56FE26C206D216F24F01EFCE06F421C0B963260666D00252778B81E0123194669
:202AB00081408D4209DA616C304623F090FE0B980268900036186D1CEEE70C93A06D002595
:202AD0000B9EBB1E0C9999408D4206DAA16C074623F07DFE23F0D1FEF3E7E06D0025BB1E48
:202AF0000C9999408D4206DAE16C074623F06FFE23F0C3FEF3E70A9709984001421C216C63
:202B100008788007C60F00200890099003460C9F0292BA4272D93D4637460793501B0A9EFC
:202B3000B04232460B9B00D802461A6020462A461DF004FB09994018C1B2731E012632465C
:202B50009A4091420C9501DA084600E0404291420696354600DA002529460A9A914008189F
:202B70000006800D001F04218843FEB2B7005249C919089A52008918495D89004F4A925D73
:202B9000891808180B990860204600F05FFA6A0005924B480497C1198918099A8A5C4948E5
:202BB000C11920780A90801E0390095C0C9F7F181F233B4079098D00216C4D59DD40069867
:202BD00005400992554005235D430A2070433E4A10184019142575433C4A5519039A5343AA
:202BF000EA18079BD35CC65C3948049A8018059A8018089A825C0892029A8AE709980128F1
:202C10000A9810D108988000C01C0B9E3060284D2046A847012030602046A847022030606A
:202C30002046A8472078992603283BD3811E01200C908840FE300021C9430A910B9D0C9938
:202C50002960C7B2002F11D07A1C2046394604F0ADFB0C9828602078801E0A998140C94369
:202C700020463A4604F0A2FB781EE8E72078801E0A9F39468140CA430021099120460D4BC3
:202C900098470C9828602078801E8740FA432046099F3946074B98470C9A2A60204639460C
:202CB000044B984730460DB0F0BDC046DD3600005D300000BD73000024A5020068A8020043
:202CD000F4A402000CA5020010A00200A89C02003CA502007FB51546D84A82181C2A48D80B
:202CF000920001A39A5897466D2D0000832D00009B2D0000C72D0000ED2D0000032E00006E
:202D1000172E00002D2E0000832D00003B2E0000832D0000832D0000532E0000712E00006A
:202D3000832D00008F2E0000A52E0000CF2E0000FB2E0000072F0000292F00004F2F000011
:202D5000612F0000832D0000772F0000832D0000892F0000912F0000AD2F00001824012913
:202D700000D05CE12878022800D958E1B449887054E102240E2800D951E1022900D04EE19F
:202D900029881CF045FD044649E11824012900D045E12878012800D941E1A949012803D1A1
:202DB000CA78032A00D1F7E00871002800D035E100244C710EE01824012900D02FE12878B0
:202DD000042800D92BE19E49C870032800D025E100248C80204623F009FC20E1182401299D
:202DF00000D01CE12878012800D918E19449887114E1102900D0C1E09148543010222946E8
:202E100023F0AFFA0AE11824012900D007E12878012800D903E18A49C871FFE0012900D072
:202E3000ACE0287886490873F8E0002900D0A5E024F02AF8002800D1DDE08148012141732B
:202E5000ECE01824012900D0E9E029787C48827B022A00D0B3E0102900D0E0E01021B1E01B
:202E7000012900D08AE076490A7C287808740024002A00D0D3E0012800D1C2E0CFE0182425
:202E9000012900D0CBE02878042800D9C7E06C494874C3E0072971D1691C01AE06223046D9
:202EB00023F071FA29780024009403AA304623460EF062F9002800D186E03424AFE01824C4
:202ED000012900D0ABE02878022800D9A7E0002800D1A4E05A498873022800D0A2E010206C
:202EF000C873012023F0A8FE98E0012946D1287822F05EFD92E0524E307A1824002800D0F7
:202F10008DE0602970D1002D6ED04E486022294623F027FA01206CE0182401297FD1287881
:202F300001287CD8464908720024002877D00120487244484449602223F013FA6FE0182447
:202F500001296CD12878012869D83D49C87265E00024012963D12878012860D838498872ED
:202F700023F03CFB5BE01824012958D1002D56D028783349087051E0002918D018244EE09A
:202F9000182401294BD12878012848D82C49012841D10A79002A3ED1022440E0182401299E
:202FB0003DD1287801283AD82549C87436E023F06BFF002828D02248012181742EE0CA1F43
:202FD0000A2A2CD2C17329E01D4DE87A002804D123F05AFF002802D0E87A012827D103A815
:202FF000007809F049FC08E0012918D1002D16D02878707212E020F0FBFE0446502020F0B6
:203010001BFB1AF043FA0AE010F00CFA0446502020F012FB03E0487123F0E8FA0024204661
:2030300004B070BD0024204623F006FEF7E703A80078696A01220A54F1E7C04600FCFFFFD1
:20305000C87700202C780020889D0200F0B589B00446802025580395E06DE26F616F636CFC
:2030700008930791E908531C4B43D9B28F00C0190690A807060F05A88159A36F206E009219
:20309000C44D0A46A847E06E616E08910790069105A88059A36FE26FA16C0092BE4D0A4609
:2030B000A847E06E216FA26C636E08930791069205A98959E26D236EE56C08950793D219A6
:2030D0000497069205AA23F06FFEB24DA847606EE16EE26C06AB07C305A88059E26F521C65
:2030F00023F075FBE06E216F08900791069005A88059A36FE26F216E00920A46A64DA8475D
:20311000206FA16E08910790069005A88059A16D226E636E08930792C919069105A9895909
:20313000A26CE36C656F08920795069305AA23F03BFE984DA847206E616F0891079006918B
:2031500005A88059A36FA16EE26F00920A46924DA847234660330ECB08920791069305A86A
:203170008759E56C606F08900795069105A9895908930790069205A88259A36FE06F0090A1
:203190003846844DA847226E606E616F06AB07C305A88559A36FE16EE06F009028467E4F32
:2031B000B847A36FE06F226D216E00902846B847E06C616E226E06AB07C305A88159E06E89
:2031D000626FA36E06AD0DC505A88059A36FE26F00920A466F4DA847616EA26DE56E089534
:2031F000049FD2190792069105A988590290216F226E636F08930792069105A98959E26D44
:20321000636C0893D2190792069505AA23F0CCFD604DA847606EE16DE26E0892C91907916E
:20323000069005A88059E16F4A1C029923F0CFFAE06E216D08910790069105A88159206E7D
:20325000226F08920790069205A88059A36FE26F00920A46504DA847606E616FA26E06AB4E
:2032700007C305A88059216EE36E08930791069205A98A59A36FE16F0091484D0146A847F4
:20329000226F216E206D08900791069205A88059636E06AD0EC505A98959636CA76E0892BE
:2032B0000797069305AA23F075FD3A4DA847616F606D626C0892049D40190790069105A843
:2032D0008059A26E08920791069205A98959226FE36E08930792069305AA23F05BFD2F4F54
:2032F000B847E16E606F08900791069005A88059626D636C089352190792069305AA23F0BD
:2033100049FD264FB847616FA06EE26E08920790069105A88059636D08910792591906915C
:2033300005A98959636E276E08970793069205AA23F030FD174FB847616FA06DA26C0892DD
:2033500040190790069105A880590490A06EE26E636E079306920425039F3D402D1D05AF15
:203370007F5908970790069105A88159206F276E0792069305AA525908920797069005A8E6
:203390008259A36FE06F00900498044CA04709B0F0BDC046DD360000813800000939000004
:2033B000F0B58BB0C3488078FF280CD023F0CCFD0446FF201C302618205C012805D17178E4
:2033D000204620F0EDFD0BB0F0BDCB2040002518DB2040002018099027467437B87B02282C
:2033F00008961ED1A08E0A90A179E08E0309628E52080998867B360705D4009330200A9B4A
:203410000FF004FC0AE006460A36009300200A9B0FF0FCFB70680821884370600020B873F2
:20343000089E2878022801D100202870387F022801D1002038770A9407971B20315A0029D5
:2034500002D0707E0EF05AFC0724204611F071F8305B401C039430530520315A964A537BEE
:20347000C91831520321775A507C069004931B18D57B5B19947B1819137CC218B8187052B8
:203490000A99488908810D203758897938268B48002F16D00346304648431B6818182C23CF
:2034B000C05C40003B5A9B183B5238184A23C55A1446049AAA18C25222467F48037CC57B33
:2034D000847B04911746069800280596029230D1002C2ED1002D2CD1002B2AD10025039EB4
:2034F000304604992A4610F076FC0A9CE583099A10460A30406830400A21515801220692DF
:20351000D2070A40101803D0A079002123F050FD694B587B0028079E25D0207C002801D005
:20353000E089A0812574207F01283AD1608CE08337E00021099D29800A202858C20F079E8F
:203550000A9C5E4F069147D00A356A6853079B0F3AD00022049837460D46114623F028FD1E
:203570002946564F38E00920089A115A491C1152207C02210691002813D020462E30A179D2
:20359000059A51434D4D2A68511800784C4A42436069400080187B2212018018C8852F4615
:2035B00000E0464FA0892189814204D0081A23D94449884220DC0898C01C0088002801D0AE
:2035D0000821FDE63E21FBE6D1B2039B9A43491C1940891803C5069921742089E189081803
:2035F000A081207F012801D1608CE083A1790720012210F0F0FB304B4F2080002018597AED
:2036100000290CD001212177B178002907D1B17B002904D1317F002901D1618CE183017812
:2036300000290BD0022904D1997B002901D1002103E0197D002901D0022101705878002847
:203650000AD020685968C160A07905994143386840180021C1850FE0A079059941433868B2
:203670004018C18D1D22089B9950134B0021E1832177C0692168C86098787F2800D181204B
:2036900030702046FDF7F8FC012800D19BE60121204613F0C9F80C4810301DF001F800F0DB
:2036B0009DF900F01FFB0698029922460CF09AFF89E6C046486D0020546B00201C6E002051
:2036D000C4090000AA100000C07B0020F8B444464D4656465F46F0B400B501B40B9B5B00DF
:2036F0005B1C6C469B00E31A9D4610B46C46241D00266D46009CE36A2D1D9B00EE505B001F
:20371000EE50E36A013B9B0098465B009946002300240025002702E0370040463F1A9A46B4
:20373000A346AC46B646F01B1458C859030C80B2250CA4B21E006E436343454360431C0482
:203750001B0C00195E412C042D0C00196E4153465C4665461B1874410020454176460437DE
:20377000474501DCB742DADD6846001D835123462C46002504364645CCDD4E45CCDD835103
:20379000009B9969083102464E4604361068009B9C6924684443A146002700230024002588
:2037B0009A46A346AC46B6464C46C859030C80B2250CA4B21E006E436343454360431C0407
:2037D0001B0C00195E412C042D0C00196E4153465C4665461B18744100204541D0591B18F9
:2037F000002044414541002F02D0043FD35104370437764623462C4600254745D0DD301D6E
:203810008742EBDD043FD351043E464500DDBDE710BC2068E36A9B460246914668460127DB
:2038300020C840C97F08B5417F4120C2013BF7D105682F430126F741FF17FE4368463840A9
:20385000494631400843494639406D46354029435B4604C904C0013BFBD1A54603BC8E46B9
:20387000F0BCA046A946B246BB46F8BC7047C046F0B444464D46564670B48146079CA2467A
:20389000002720C940CA7F0875417F4120C0013CF7D1B8464846083354466A46A400141B38
:2038B000A54604B46A46121D5446012720C840CB7F08B5417F4120C2013CF7D142461743BB
:2038D0000126F741FF17FE4348466946091D0D46384031400843494631403D4029435446B5
:2038F00004C904C0013CFBD101BC854670BCA046A946B246F0BC7047F0B444464D465646DD
:2039100070B48146079CA246012720C940CA7F08B5417F4120C0013CF7D1B846484608331D
:2039300054466A46A400141BA54604B46A46121D5446002720C840CB7F0875417F4120C245
:20395000013CF7D147460126F741FF17FE4348466946091D0D46304039400843494639401D
:2039700035402943544604C904C0013CFBD101BC854670BCA046A946B246F0BC7047C04638
:20399000F0B444464D4630B4884699466C469B00E31A9D4610B46C46241D4B4608320127EE
:2039B00020C940CA7F08B5417F4120C4013BF7D16A46121D0125EF41FF17FD434146294064
:2039D0003A4011434B4610C910C0013BFBD101BC854630BCA046A946F0BC7047F0B589B03D
:2039F000B54CA078FF2803D1002021F067FCA07823F0AAFA044619200101605604916518F3
:203A1000002805D57F2108402870204613F098FB21467631A06E00680068002802D0002012
:203A3000E08310E0087800280DD1087B00280AD1887E002807D1A879002804D1207F01282B
:203A500001D1608CECE7089107952726E08B218906914F1C3D186581204620F08FFA0128C9
:203A700003D096480078012803D167810020E0833D46F700089E307B01280BD1F289A9B2FF
:203A900006981DF0E1FF002804D022F0EFFE2BD0F28920E0B07E01280BD1B28B6189208917
:203AB0001DF0D2FF002804D022F0E0FE1CD0B28B11E0079DA879012816D12A8961892089F7
:203AD0001DF0C2FF00280FD062892189481C80B2824209D02A89824206D0501E608180B26B
:203AF00023F082FB401EE083E719A8790021012802910FD128892189491C89B2884209D8E1
:203B10000220A871EA7AAA72A1790020029213460CF0ACFE3879002804D00020E083208934
:203B3000401C60810397307B012811D1F08921894A1C92B290420BD1608123F055FB0546DE
:203B5000768A678E20460FF06FFB6F43B81900E0608E26462036E18B06914F1C4743584BE3
:203B70007B432568E86818180590E8605548407800280193544805D000210180608A7843C4
:203B900004990CE001884A1C0280002901D0608A03E00398C0884D494018049978431CF01F
:203BB000B7F9401C606106993170A7610599081AA860A17938277943454B1A685118CA6935
:203BD0002A610A798A80C861A079784319680D18E88DA18A49004118E98528462E30089AFC
:203BF000127B022A04D1B27B354B5A4351180180344A5278374E002A19D008977B221201C4
:203C10008A180280EB699B19EB612668B360019FDB1B3361079EB37A042B03D15722920170
:203C30008A18028090B203990860089F07E0029A042A079E03D1E122120189180180264893
:203C5000017C427C12025118827CC07C00028018000440180168608E484364211CF058F9A8
:203C7000174941431B4840189030A8621B48007817F051FFC1B2284623F0B0FAB17A0029A7
:203C900003D1002021F01AFBB17AB27BA0791DF047F920461FF027FA2068114907220A7021
:203CB000A1794F430A490968C9194160204615F071FC002009B0F0BD486D0020BC6E002084
:203CD000C4090000546B00201C7F0020DC0500001C6E0020C0FAFFFF08A40200906E00205E
:203CF000AB6E0020FEB5AF4E7468002C25D02578102D25D80120A840AB49084220D0307818
:203D1000002822D0012738461CF070FC002805D001201CF089FC1FF08DF82578284607F016
:203D300025FC0646002850D03078102873D887409F4807426FD0726871E01BF0ABFAFEBDC7
:203D5000402D06D0802D04D0FF2D002021F0B6FAFEBD964D687800283DD023F0F9F823F0B8
:203D7000F3F807460068029040680090A87823F0EBF80190B879E8702178402904D123F0AF
:203D9000D3F8012800D1E2E07078C00600D1F6E0012528461CF02AFC002804D001201CF048
:203DB00043FC1FF047F8B07807F0E0FB002800D1E5E004460078102800D99CE085407C48D6
:203DD000054200D197E0656899E0784840780028BBD0002428E07078C00600D1B7E001256B
:203DF00028461CF003FC002804D001201CF01CFC1FF020F8B07807F0B9FB0446002868D055
:203E10002078102800D98BE085406948054200D186E0626888E030461FF00CF802466348DC
:203E3000407800281BD0144623F092F823F08CF8054680795D49C8702F6878680290002CC2
:203E500005D03046394605F04BF902281BD1A879397880290DD1029913F0EFFA11E0B44272
:203E70001BD03078042842D002283CD0012862D06BE723F059F8012869D0A879029923F0E9
:203E90009FF838468BE03178042924D0022926D0012900D059E7214651E02078411E0729AE
:203EB0005CD8880001A108588746C046DD3E0000613F0000713F0000553F0000713F0000B2
:203ED000713F0000713F0000DD3E0000002A65D13DE0002228E031462246029B35E03146A8
:203EF0002246029B37E0FF200023314633E0FF200023314629E020461EF09CFF0546002D81
:203F10003DD02046029905F0EBF8022837D02178042929D002292BD001292DD129460EE010
:203F300020461EF087FF0246207804280AD002280ED001280BD1002A09D0FF20114623F0F8
:203F50003BF8FEBDFF200023214615F058FBFEBDFF200023214616F098F8FEBD10281DD088
:203F7000002021F0ABF919E021462A46009BECE721462A46009BEEE7002021F09FF9019875
:203F9000B842029C0AD0B8792178802903D1009913F053FA02E0009923F012F8204612F06F
:203FB00085FCFEBDF46C002016010100486D002002010100F0B587B00022002800D146E126
:203FD00020C82C0CA54E731C2F461D42039105D00B8825469D43AC420AD038E1002C03D133
:203FF0008B78002B04D132E10B881C4200D12EE137400322002F00D129E139463C46B90A60
:2040100000D024E1964909680091FF26002529460195002C00D117E1002D12D102C80A466C
:20403000904B1A40551C0A04930F641E090C160F022B78D80122B2408B4B1A4273D08B4A82
:2040500089180B2E00D905E1B20001A39A58974699400000AD40000091400000914000002A
:20407000B7400000AD400000914000009140000099400000914000009140000033410000BB
:204090008A072A461CD0DDE08A0700D0DAE00A46002D13D0002308C26D1EF9E7CA0700D0F2
:2040B000D0E06A080CE0CA0700D0CBE00A46002D04D0002313806D1E921CF8E700221546FA
:2040D000944200D2C2E0002A79D00692721E0A2A00D9AEE0920003A39A5804940296069B55
:2040F0009746C046474100002141000061410000CD4100008741000021410000AB4100001D
:20411000CD41000001420000214100000B4200001A460E46002A4DD008C808C6521E091D60
:20413000F8E7CA07ADE7082E00D280E0092E00D181E0AA0080E01A460E46002A27D008C8AB
:204150009FB237601B0C736008360831521EF4E7012214041E46002E2DD080C83A0CBB0395
:204170009B0F03D027426DD1575201E0BBB25350069B761EEFE71A460E46002A07D008C8E1
:2041900033801B0C7380361D091D521EF5E70122D243069B5A4355190EE0012212041E460E
:2041B000002E07D0036813424CD11C0C6352761E001DF5E7069BED1A049C029EE41A012D8F
:2041D00000D026E70422334613430125052B00D01FE7002C3BD02346052E02D102680A8037
:2041F00001E002880A601C465C1E001D019D10E70860ED1A9A008018E0E7039A92780592A6
:204210001A460F46002A0FD008C8059E002E01D09BB205E01C0C3E68A6439BB23343049C12
:2042300008C7091D521EEDE7069BED1AC5E7104A06E7069BC2E704225218009B9A420BD866
:204250000C4AFDE6062202E0019A00E00422104607B0F0BD0522FAE70722F8E7FF3F000062
:2042700098A80200FF0F00000F08000000000840000009400C6D0020F0B585B01225002864
:2042900043D00646984F38780938052801D221253BE0B07822F057FD002835D00446B07849
:2042B000924908703978002901D191490870607A00282AD0A07B012805D1F078317909026A
:2042D0000818802821D870783F281ED820461FF0EDFF606C00281BD0224633326665307848
:2042F000012827D1A07B042824D801218140132001421FD07F480078002806D07E4949783D
:20431000814207D1092500E04225284605B0F0BD0725FAE7A06C407840070BD515461278D0
:2043300021462C31802022F00BFE2A46002801D00B25EAE7707800280CD0307801280BD1EB
:204350000025A5622573207A012838D17079616D4871DAE71125D8E7207A002800D18BE099
:204370006648006880470646604F3878012122F054FF0025257239786148026810460368DD
:204390001F7A002F03D19B6C1B788B4276D0C0689042F4D156480078814205D122F09EF9AD
:2043B0006168884200D18AE0204622F039FD5648016830468847204619F008FEA5E7029290
:2043D000112010F0B6F86573E572012020720CF033FD60604948006880474F49096800292E
:2043F00002D062684A60F9E747490968884760684A4941613D4D28780026314622F00DFFD5
:20441000297811250122284603920FF0E4FCA06C4078C1060AD501952046FEF7B1F8054661
:20443000002800D071E7A06C4078019DC0071CD0208F002819D0E16B002916D00299C97810
:20445000884212D90F2020F07FFF00280DD0208F04A94870029AD278CA70000A8870A06C93
:20447000007808700F2020F07DFF3878002813D020461DF003FB20E0002546E7214F3A78E1
:20449000022A87D31CF048FE22F03EFB3878401E3870164801787DE721480078002807D018
:2044B000A06C4078800703D01E4800681AF05AFD039820723D70FFF715FC354625E740688F
:2044D00022F0B3FC182801D0022807D10F48104901601048007801210DF010FC0A48016831
:2044F0003046884711E7C046AB6E00208B6E00208D6E0020AC6E0020486D0020B47E00209B
:20451000406E0020AF6E0020B87E0020586E0020199D0000876E00208C7D002005D4000077
:20453000806D0020E06D0020F0B58DB09B4A1468002901D0A16802E006CC8918083C461AB2
:2045500022F0A4F8054622F04CFE854204940ED0B0B2290C02464A43330CACB2594363436E
:204570009A186043000C1018800989024618069601200590C0078A4908608A483018401C66
:20459000000C486088490880884F7C682005860E069831461FF066FB0546E002C10D8E423A
:2045B000069C284602D020461FF05CFB000428437864386803908004870E204639461CF0B5
:2045D00007FC06467A490A684B68486889691F250D405201DB04DB0E9C1800977C436C438D
:2045F000744A9442059F00D80027944201D8042200E003224B069B0F6F4D6D1C2942029558
:2046100002D10906C90F5B18FC40092105919D183F21019131463F318909C7B27943080CF8
:204630001DF042F90A210A1A002A0CDD3146AE1A059D281A012383405818D040014691401E
:204650000A46474305E032467743001F87402E18059D6C43039901980140002E01D4B4406F
:2046700001E07042C4401646009A5448046047608A42304602D006981CF0AAFB80004B497F
:20469000C863B00008644E48049F0168C907FCD1786843498C6821461EF090F9424D6880AF
:2046B000B86821461EF08AF9A880414880690299084201D0002101E00006C10F1620401A1A
:2046D0001522511A01252A468A403968CB17CE185E402036B309634308331B09059E5E4366
:2046F000B218C240002900DD5242364810403049C860C8653E69002E4ED02001F9680A0B1E
:2047100042432D4B0B404343180B8018C10B37682D4A3A4051434908224B03405343180C55
:2047300044181034200C1DF0BFF80821081A7A0C1821891A183A07AB002A04D000271F7074
:20475000521C5B1CF8E7C2179043AA04824003461333351D183907AE18366409002907D0C7
:204770002F786743BF18DF4077546D1C491CF5E700210E4C182905D0621807AB5B58536228
:20479000091DF7E711490A6830239A43032800DB0320000102430A600DB0F0BD0C6D00202D
:2047B00018350840FF7F00001A68094080340840D42008401CC7711CFF0F0000A824084041
:2047D0002C320840FF030000FFFF010040310840F0B58FB00646A04D2878A04C2070032805
:2047F00000D0ACE000202870207006A822F048FA002800D0A1E00120059006902046243084
:2048100006A91AF0F1FD002800D096E0944F2E21384620F049FE0C370A21FF2238460292CB
:2048300020F03AFE1EF00CF900273846314619F0B5FFA06021460C3122F094FA2069666998
:20485000044631461BF064FBC1B2022900D3022183480170834801700598C0020490864256
:204870007E4A6AD1C802844267D39068002864D07D487B4D68800298A8800598C002E88009
:204890008F425ED2FEB200240EAA04233046214621F084FB0C2078432D180E98E8823F214B
:2048B0008904014003229204914202D0010E96292FD18103890F6976C2B21346FE3B1021BA
:2048D000022B25D37E2A23D02846163003900994049CA0B2041FA1B209AA0423304621F05B
:2048F0005DFB0998411C03D12146614A1140F0D101210A46CBB2042B06D8C3B2FF2B00D0EF
:204910000A46491C000AF5E7D0B2211803980078A983C0B2702808D07828514D03D0FE28D9
:2049300006D07C2805D1EF7003E04D4D2F7100E0AF704C4801787F1CA2E7012028700FB0F3
:20495000F0BDE878FF28059C22D12879FF2802D0E87002241CE0A878FF280CD0401C1BF0E1
:20497000D7FA0C2048432818808B002801D0E970EFE70298A8700024EC7020460DF02EFF6A
:20499000364A1178014311707E2120461CF024FFA878FF2811D133480178E878401C1BF021
:2049B000B7FA0846A9700DF019FF2C4A117801431170A878FE211CF00FFF2C480470EA7853
:2049D0006A700C2050432818818BE980022C34D0012C38D10125224F88B2182833D3D0B278
:2049F000C91F89B209AC224613F030FFE07A400723D5FC7809AEF089F98800220092081AA1
:204A1000C01F81B203232046324607F09DFEFA78A31A591E8B41B1894E424E41002828467D
:204A300000D130460028284600D1184600280DD0944208D00A48C188CEE70120084948712C
:204A5000002000F017F80548007878E709A8007C1AF0BEFFF7E7C046597E00208C7900200F
:204A700008690020886E0020FFFF0000976E0020FCFF0000F0B59FB00446A148406800286A
:204A900003D08047002800D1E8E007949D4E01200690F073B07809907078002511AA04235B
:204AB0000A90294621F07AFA0320000411990140814203D17079002800D11EE10621F8248B
:204AD0000A9F3846224620F0E3FE0C252846784310903018047611A80078702803D070215D
:204AF0000A981CF079FE002111AC0423099E30460B91224621F052FA2078FE2803D0FE214E
:204B100030461CF069FE0621FE243046224620F0BFFE284670437B4F163705903E18B47061
:204B300010983818C088774948827D20810076480D9120F0B9FC72480B990170B01C04902D
:204B50007048817828460C9148433818C1880891801D03906B484078109045437819694FC0
:204B7000C1888EB2172E7DD365480078002800D09EE00F91CD1FA9B212AF10983A4613F099
:204B900065FEFC8920461030B0420CD8B87A962809D12D1B12A8427AA8B22146109B15F0A8
:204BB00023FF002821D00F9C641E0F94554F0B9DA0B2162854D9362802D82646163E00E0F9
:204BD0002026B3B2A41BA1B217AA109821F0E6F93004EDD0B0B217A94018401E00789628B0
:204BF00001D0761EF4E73119BBE712A8C07AC10701D1800701D429462EE0E71D404800780E
:204C1000019708990F9102952A4639041FD000281DD1B8B20D9988423D4600D30D9DACB22A
:204C300091B21098384E0E923246234621F0B6F90F9EB1B20C98344A23461CF039F90E9A31
:204C50002F4908707F1B5219AE190F96DDE7089801990818089002992A4F82E700254CE05F
:204C70000F9900E00B9D26480078002845D1B982089803990880388212203A5E797B0C9DB0
:204C90002846069C23461EF083FB14203A5EB97B022328461EF07CFB0799002900D110211C
:204CB000E202388A1092101A884203DB7C2102E00B9D22E07821099D28461CF08DFD0A9EB6
:204CD00030460DF08BFD0E4908700621FC242846224620F0DDFDBE7004980470FD707D705B
:204CF00005983818808BF880FE2130461CF074FD00207871F88810990D1A28B21FB0F0BD73
:204D10008C7900200869002004580020FEB50446407800071ED4E078227912021018627999
:204D3000120482181127202A00D228E19548824200D924E1A379E2791202D318227A1204AF
:204D50009A18202A00D21AE1824200D917E1A07A032867D8A07C1227032800D90FE1207D7B
:204D7000421E032A02D3832800D008E1607A07263040607200D102E10191207801252946A1
:204D90000EF09AFD002807D0002646728464017A01290AD10C27F2E0002022F0B9F87E497A
:204DB000097888423CD03746E9E001463230009002910E75617A3246032A10D00B46D34033
:204DD000DB070AD0731C0298037530061E4604D110462530029B58752E46521CECE7607855
:204DF000C10600D4CBE0217D012900D0C7E001461039052918D80020890002A25158019DDC
:204E10008F46C0462D4E00008F4F0000454E00004B4E00008F4F0000494E000003200CE09E
:204E30000D27ACE01227AAE01D28019D00D0A6E0012002E0022000E0042002998873E07C8B
:204E50007F2803D15048007888750CE040B20D46002120F0A1FDA875019DC0B221F0B3FFCA
:204E7000002800D18BE0002D04D00298807D22F0B2F92870A17A012904D8009F39700298CE
:204E900020302FE0414D28680D3020F0C2FE002804D0A07AC1070ED03E490DE0296802981D
:204EB0002030C91D22F0D6F90320009F3870A07A0121014013E0364921F03EF800285ED0D5
:204ED000A07AC00701D0334900E03149009F0298203022F0BFF9A07A012101403970286831
:204EF0000170401C002901D02A4900E0284922F0B1F9607840073ED5A07AFE210140022984
:204F100019D1E17A012631402048006825460C352A4611F03FFBFF2815D01E2747431B483F
:204F30000068C0190D3020F074FE002812D0E07A0099487009E0E07A787002982C300C344B
:204F50000622214615E0E07A787002982C30062229460EE00D4C2068C019C11D0D3017F024
:204F700029FC009846702068C019C11D02982C30062221F0F6F90120029948720027384636
:204F9000FEBDC04600B80B00906E00204C6E0020906D0020986D0020887D0020FEB50C4619
:204FB000080405D460073ED4200756D4002426E19448007813F0BAFA002800D11DE10646B9
:204FD00005463078B02854D0B12866D0D0286ED0C22800D00EE1A87800286ED18A49012069
:204FF00008764872F11C8A4F202202923846894B98473846203031462331029A854B984798
:205010004037433638463146029A824B98477E48C06A002851D04368002B4ED06A78002024
:205030000621984749E07848C069002813D01FF0B5FB00280FD00546C07A00280BD10120CD
:20505000E8726A68A97A288905F098F86868002801D021F059FD0420D0E06B484078012823
:2050700005D16A480078002801D10EF031F80820C4E02879012829D0092849D07D286ED043
:205090001E2800D0B1E06048C07D002800D0ACE06888002110F086FEA7E02879002800D03B
:2050B000A8E02A89E988688816F0B4FAA2E02846FBF712FC002800D09CE057480078FF28EE
:2050D00000D19AE029461EF0B3FF96E04E4F787D002800D089E0287A082800D082E06888E9
:2050F000029020F089F8032846D002287AD11021002222F0B1F8019002981AF087F80028DD
:2051100066D04249097800295BD0012078705FE03D4F787D002868D1688869781A2962D079
:20513000029020F069F8032834D002285DD12889012201280BD16889032808D1E8688078BF
:20515000002804D11021012222F086F80246F86A00284AD04368002B47D005212EE02A48DF
:20517000407D002841D16F88384620F045F80146384615F07FF938E00421002222F06CF84F
:205190000246F86A00282DD04368002B2AD00421029826E028891822012808D16889032892
:2051B00005D1E8688278042122F056F80246F86A00281AD04368002B17D004210298984723
:2051D00013E0437901221340811D18461FF0B6FEF86A002806D04368002B03D00521029812
:2051F000019A9847688819F08DFB29790836304621F06CF928461FF0D1FB08484440A0B269
:20521000FEBDC046276C0020C8770020327F00202C78002073630200FB7A00200080FFFF2B
:20523000F0B585B08C4800788C4A1178814201D100240DE15168091D0025A84207D00A78EB
:20525000002A09D03922D20089186D1CF5E70024204620F033F8FBE0E8B221F075FE044600
:205270006C20012121546720029021540A46392000262654822026547420802121547620C8
:2052900026547B202654FF2060548B21490066522321C900665201461C3166546662A571FE
:2052B0000492A2802667A6662274A660E6832677A66125468235AE734D21890063181E729F
:2052D000EC22A6522522D200A6508F2252000392A65207461237E6556054CD214900604AB3
:2052F0006252CF21490066542146EC318E734E608E60AE740E73039AA218D680968056809A
:20531000E219D670967056705E8003910E61554ADA601E82987402998A00A654524A1278C5
:20533000CB235B00E65403469E33E25419221201A654B5225300E654652292000499A15433
:2053500099225200A6544B229200A650E318474D2D88DD80464D2D881D81464D2D885D8095
:20537000454D29880291C9277F001B25E5530A25424F5F5112255F511621414D01915D5005
:205390001A27DD511E27DD516327BF00E5510E27DD51A218968002999980C5225200A118C3
:2053B0000291D5225200A5182246623277237B2B02D0E0545B1CFAE7324803781370437877
:2053D000537083789370C378D3700079107107200090C043039A15322B4B002805D0171844
:2053F0001918497A3972401CF7E72848019F0299C851039A1675507DFB2101405175A079CF
:2054100013F074FBE8590499C90701402048081820490978E85106202E50A87BFC22024049
:20543000AA73284616304268009B9A434260A97202998E7602202871CE832E806E80AE8136
:20545000064A1078411C1170002801D1A0799070204605B0F0BDC046AC6E0020486D002096
:205470000102000030750000916E0020B66D00207E6E00209E6D00207C6E00201B001B009B
:2054900048014801AC6D0020106C00200DCB0100400A0100477F0020F0B587B00C4688785D
:2054B000C978090208181F2606900640944F38690021002805910DD01B2337461F4081680C
:2054D0000A7813409F4207D18023069D2B4003D18B4F25E0084623E01207894F01D432077A
:2054F00004D4798E090513D4402115E0887A6073487BFF2808D0A074204613300E310622B7
:2055100020F02FFF042006433869798E490502D51AF0D6FF02E0002110F0DCFD002038618F
:2055300035210391795C04224A40B97B40230B4013435D425D4101210491002B17D03879FD
:2055500021F0E6FD002800D1A1E000210160A27E0346E17E09028818217F627F12025118DA
:20557000090408189860607E05931871386900280AD041680029624F39D005980860386922
:2055900041680968416032E05D4FF87921F0C0FD3861002820D0787921F0BAFD396988604F
:2055B000002800D18FE0FF2101914170801C002102910622009220F0DDFE386980680199F8
:2055D00041730E300299009A20F0D4FE386981684D4A4A81029A0A700028059979D0016040
:2055F0004160806800218161C182454F386980680178314301702179FF2907D04170801C6B
:20561000611D062220F0ADFE38698068049AE17A0172217B4172617BFF2900D08172A17BF2
:205630007F2900D0C17260269505E17B0173217C627C120251188182A17CFF2908D04173F3
:205650000E3021461331062220F08BFE38698068069931400E46617EC28A5118C182F8686C
:20567000284208D10398385C042804D120F0E7FA01D021F049FA204621F046FA002E3DD19E
:205690003869798E490518D51AF01AFF18E03869002803D01AF014FF002038613B6A002BBA
:2056B00002D0184821F07BFB20F0C9FA01D021F02BFA204621F028FA20E0002110F00AFD86
:2056D000002038611AE0084621F01EFA002038610599002D0A4D08D18868002802D021F0E1
:2056F00013FA0599084621F00FFA204621F00CFA2B6A002B02D0034821F051FB07B0F0BD6C
:20571000987A0020106E0020FF7F0000F0B589B0069314460E460546087AC00624D4109BD0
:205730000F9A0E9F3078022856D17068017840780002401880B27D494118042922D88800A7
:2057500001A108588746C0466D5700002B5800003F5800006D5700005B580000002A00D015
:205770008AE0F068008869E0204620F0C4FD002847D003460A222846314698470746002862
:20579000CDD0D0E06A49411802293CD36949884270D0694988421FD1002A6DD101203880FD
:2057B000F0680078069C20707089401C80B23D46002739461AF04CF8002800D1A1E02988AE
:2057D00002785118891C2980817A6170C17AA17002784168E01C60E004951D46059717461C
:2057F000204620F091FD00280BD00446119800970195029004983146069A059BA047074659
:2058100091E00E278FE0002A36D1F06802783A804168069820F0A5FD84E01D46F068144634
:2058300021F09BF881B2A14228D207277BE0002A22D1F0680168284620F00CFD02213980DA
:20585000010A069A517010706CE0002A14D107203880F0680178069A1170417851708178AD
:205870009170C178D1700179117181795171C079907157E0002A13D00B2754E03B46002759
:20589000A1423A4604D02A1991422A4600D8021B1A80F068011992B2069820F062FD42E0C7
:2058B000F068048804203880200A069948700C7008A9204619F0CCFF00282CD00546C66893
:2058D00008A802881D4C07AB284621460FF0E0FE002809D12B786A681948022118F02EF888
:2058F000002801D107A8048030780228069C15D17168201D022220F034FD3888801C388082
:205910000CE02888001D2880601C00270422394620F030FD07E007A80480069C0798A07026
:20593000000AE0700027384609B0F0BD00D7FFFF00D8FFFF0228000003280000FFFF0000F4
:20595000C2A80200F0B597B0154608910690C089C01D84B2204615F0D3FD0746FF280BD16E
:205970002046FFF787F8A04206DA80480078002800D0C6E00520C4E07C4E30780028069C97
:2059900016D1002D03D0022D12D1FF2F10D1207A11AA1072606812907548C188C07800234D
:2059B0000093032306F0D0FE159820741498A081A189002927D0E089002824D0091A0791C2
:2059D0000021079A52188EB280B2801B202800DB202091B285B2207C09AF3A462B4620F04C
:2059F000DDFA0898811938462A461EF0A3FC002808D1A9198AB2E0898242E2D30020A081C9
:205A10005A4E7DE0594E5A48C788C578002116AC04232846224620F0C1FA20787E2805D1DD
:205A30007C2128461BF0D8FE16A800787C28069C62D13B46E789F91D88B20790C2180120E8
:205A5000C00282425AD804920591E18809A84170BA0003920271A2881E46930883703B0569
:205A70009B0E9201D218C270227A92008905890F891801700696BC1907980D2843D2029468
:205A90003A4E1836304608993A4621F059FBF019089009AC0522214621F052FB781D81B21A
:205AB0000022304620F04AFD9621A1718100891C61718009039908432071072208982146F5
:205AD00021F03EFB284606993246284E079B1BF0EFF930700C216943254A5118049B8B83DE
:205AF000D188059BC918D180002809D0029881B2284619F06DFF03E0012000E00520307011
:205B1000307817B0F0BD00220898394620F016FD09AE052231461FF061FB9621B1718109D2
:205B30000A9A0A4332718000801C707128460699089A3B461BF0BCF90C490870A1B207238A
:205B500028463246094E1BF0B3F93178014331700806D5D10C20684305490818049A828317
:205B7000C888059A8018C880CAE7C0468C79002008690020F0B585B01646054650040024E0
:205B9000002837D5E86A002803D001229202904206D94120400229790818A8800224D9E0A0
:205BB0000F461EF04DF80146284616F0D5FE6B4910280DD3AA88AB791B04D2180A40000228
:205BD0001043A880100CA87120F0C0F9022410E063480278F82313405A1C0270A888AA7958
:205BF000120480180840032109020143A980000CA8713946032738026A791202824200D070
:205C1000A8E02B1D012004908205700663D5029253480078C207534E0191039334D05249E2
:205C3000524808805248534A8260534A0260534A4260002048805249049A8A600A604A6DAF
:205C5000042AFCD148654F48042101604E480168029A11430160E86A0090102004991FF061
:205C70004DFA4A48476237604948411C716000990818B0603A4A1078FC210140881C1070E5
:205C900004990C430199039B400723D5F068C007FCD115F05BF8286B00280BD0E96A8A00DA
:205CB0003C4E314621F04CFAE86A810030461FF0FBFB01E0374828630199294B1878FB2288
:205CD00002401A7004980003039B1A781018188002200443029A11423CD02148007880078D
:205CF00038D5039326480021416526480760274801680907FCD528480168049B9943016079
:205D1000264801680C229143016025482021816001601448036120F07DFF0646E86A03213B
:205D30001AF0F6F8801920F0C4FD10280BD30002039A1178081810800220044315F006F897
:205D5000074A107803E0064A117804200843FD2101401170204605B0F0BDC046FF00FF0083
:205D70008A6E0020005008401A68094060910000BC340840C40486090000762C0000A32FA4
:205D90000030084064100840440008409C200840FF07000000000940B03008400C32084032
:205DB00000200840F0B58DB00E4609780627002900D09CE07578012D00D198E00392B478ED
:205DD0001D2C01D01B2C1ED17B490978FF2900D18DE000271D2C04904CD11DF065FB002802
:205DF00048D004460A202056002842D0002700287DD4C2B21D2104981EF010FDA07A802193
:205E10000143A17273E004901DF04EFB002500286CD0012C06D10446B188B06807AA1EF0F7
:205E3000CDFE0BE0817804278C4260D14368002B5DD00446B188B06807AA984707460028D6
:205E500055D12346A078401FC101C0B240080818C0B209287ED8012181405722114274D0A4
:205E7000B278194607AB049807F0A4FF039908703CE027460297B388B26807A800900024B3
:205E9000204629461DF06CF907460028049A2ED106A8FF21017005A80470474D68680028AD
:205EB0000BD00368002B08D0274605A9144606AA20469847224600281CD0B378287807A928
:205ED0000091002511462A4616F09AFD074600280DD10898002801D003980570B0781D282F
:205EF000029903D1002901D01D2088722F4638460DB0F0BD05A8027806A80178204613F0DE
:205F10003BFA22460028D8D00898002802D0012003990870B0781D28029907D1002905D057
:205F30001D20887210461CF00DFB224668680028DDD04468002CDAD01046154620F0BEFBA7
:205F50000128D4D12846A047D1E7092802D11869002885D1587A19490978884201D10027DB
:205F700017E01C46B37807A90091002504992A4616F046FD2346074600280AD1B17807A840
:205F90000FF0F8FA234600282F4602D0002703980770987803280AD11C46998907A800881E
:205FB000814200D3014604981CF016FC2346184611F0F6FB9BE7C0466C7E00209E6E0020C3
:205FD000F0B589B00E4604462720C000251820684768F8691CF044FF002800D0E9E03046D3
:205FF0002646823431680969059021F08DF907942178764A002906950897049043D03035D5
:20601000039632360229284600D0304601960788079E7088039C2189C943401880B202905C
:2060300047431046784321680969411805981CF017FF00283BD03078022800D0019D28887F
:206050003D18624E37466F43039C20680069391805981CF005FF0299491C002850D002958F
:2060700005910498C51B079807897E432846314619F04EFF4643A91B00D0401C4743079A2F
:206090000599029D3FE0718E144605914C43214619F03EFF44430499091B344600D0401C7B
:2060B00021890918618180B2059B43433AE0608E464E05464643049F3846314619F028FF93
:2060D0004643B91B00D0401C404A2B4621890918618180B2434320680078402823D11E4607
:2060F000079B187801286FD188B2598881426BD1DD8820460DF098F8344A3346731912E00E
:2061100000200746079A08182189081860817819D18843181078012804D120461D460DF005
:2061300083F82B46294A26462E3610465843256829690F180898C761287840280CD0802895
:2061500030D1EF6023481EF066FD20494143224808180899C88525E0A3610698C0881C494A
:20617000401858431921090119F0D2FE401C60613F1A089BDF614000069909684018D885A1
:2061900007990978022904D13178104A51430818D88510481EF03FFD0C4941430E480818C9
:2061B00008998862AF60F07AB072204613F0F2F9069D6089A189081A81B2E289914200D933
:2061D0000120E88509B0F0BD3346ACE7C4090000DC05000008A4020050FBFFFFF0B589B02C
:2061F0001F460446804B8148D861256F20467D300290002D039204912ED1606FE16E88429C
:20621000049929D102219960E16AA56E029AD378127900BA08900020079006900E20861A7E
:2062300098000838042398433043002D01D040231843059005A8401C20F082FF6C480599C4
:20625000016006994160079981600899C16004980028039A0ED175E0606C1866A06C5866A1
:20627000E06C9866206DD86600296BD0002D0E460BD1A56E206A04992A4616F087FE049966
:20629000039A054620670E1A5CD00197029B9878002825D000270597187805AA1070587877
:2062B0005070089707970697881B216A0918901C0E2E06D30E2220F043FF103525670E3E85
:2062D00006E0324620F03CFF7019801C20673E4605A8102115F020FC02988770039A04990B
:2062F0000F253746AF430BD0881B216A0818394615F012FC039A206FC0192067354000E04F
:206310003546019F002D1DD0206F4019A16E88420BD10498401B216A081829461CF0E4FE9C
:20633000039A206F401920670CE0022D049955D1206A0818801E0178029B197040785870FC
:2063500002209870002A42D0022F01D0242000E0282025580F271646BE43207E04280BD1A3
:20637000002E114628D02846314615F0D5FB039A1740394620D124E0002E11461CD00120DC
:206390000006194FF9698143F9612121204620F045F8284631461AF05BFB1548042141679B
:2063B000206E801B2066606F801B60670820386020461CF0ADFE0FE0501A28181CF094FED9
:2063D000039A206E801A2066606F801A6067443420461FF0B7FC002009B0F0BD01200249A0
:2063F00048600020C043F7E710000C403400000190000C40F0B589B0416805910B681C6C5F
:206410005C64079007680F2661050A0F06970494039644D03A6C002A41D0002917D5386D75
:20643000796D411A07981DF003F8059803689969C90604D4196808AA11700899F7E73968DF
:20645000491C3960B97B002901D10121B9735D6835407E6C2E400120C707002E03D03046B9
:2064700015F0FFFA00E020203946C140314008D00698046C002C04D00698836C0268079881
:20649000A047002D039E03D0284615F0EAFA00E02020049CC7402F407842069FB8638120BC
:2064B000800104424FD0079805682646446813F07DFF402737402E466436002F1DD0E87CD7
:2064D000002814D10CE0296F00290DD0A96E0068AA6F8854A86F401CA867286F401E28679B
:2064F00020688169C906EED5E87C002805D0286D696D411A07981CF09BFF307800281CD060
:206510002879022819D0002F02D0A979012902D0296F002911D100242C673470A96EAC6671
:20653000012806D1AB6CAA6FB56E00940798A84703E07C3528461DF037FC079807F0A2FA62
:20655000069F049C039EF501E00430D5F820385800282CD02646079F3C68786803903846F3
:2065700012F0E4F938460BF025F92746E8376079012810D1F86800280DD1387800280AD00E
:2065900000203870B96E029179687A69A36C00900798029CA04738690028069F344606D123
:2065B00028468030039909688A6B02438A6380352C4229D00598006881690907FCD4012667
:2065D0003502016BA9430163397A002912D0002038724420385C800607D53C6C002C04D02E
:2065F000BB6C202100220798A04701201BF07AFD05980068F102826B8A4382637879002828
:2066100002D178191DF0D0FB09B0F0BDF0B58BB00A9207467C48C079800600D4F2E07B4813
:206630000078C00704D179484078800700D4E9E009910893169C1599149A139B129802906C
:2066500011980490109E724D28780028079106920593039613D022201CF0C6FF002800D168
:20667000D0E00646019404466A483080002F3FD03120E0703046083020F06FFD40E06348F9
:2066900040780225284001D01F2600E01326002801D02A2000E01E201CF0A6FF0028089B97
:2066B000099A00D1AEE0019404465B49018086723E214172042101720A99C173427307731C
:2066D000014608314160110A817301264F4A52782A4000D13340059D03992374002A00D073
:2066F0000A26E6721130002931D020F0E9FD30E00020E07030460830062203991FF031FE71
:20671000049942484078800718D401200490A0703046153000270622039239461FF02AFEFD
:206730001B3630463946039A1FF024FE089E049806400799069A059B0A9F2DE00A20A070DD
:2067500030461530002912D020F0BAFD11E020F004FD04992D484078800701D40F2032E033
:2067700060680F30002921D020F0AAFD20E020F0F4FC0A9F1B360299002904D00622304601
:206790001FF0EFFD04E00021062230461FF0F2FD0799069A059B089E019820756182228212
:2067B000E381A7710998A080E67127E020F0D5FC606815300299002902D020F081FD01E03B
:2067D00020F0CBFC1B2061680D54616841182A0A4A7061684118069A8A7061684118120A63
:2067F000CA7061684118079A0A7161684118120A4A716168401801998171084D287821460F
:206810001DF016FC0BB0F0BD686D0020606D00209F6E0020913E000001FF0000A36E0020D2
:20683000F0B587B00346007800240428069322D3059420F05DFC069B06461D8DA804870FF2
:2068500038012838B0421DDD841BA806820F0A2004904243744B2046394698470090A805C2
:20687000820F04984243204639466F4B9847029003222A4022E001940394049420460294F5
:20689000214647E0AF0B38017D21081AB0421BDA341A2806820F0A2004904243624B20465D
:2068B0003946984700902805820F04984243204639465D4B984702902807820F2046394658
:2068D000594B9847069B02E0002002900090193EDD6A290709177143CA115249898CC90763
:2068F00004920CD1290309174E43F1112A02121789180391291701912A01141709E029066C
:2069100009174E43F1112A05121789180391059C0194009905945E7B7F22164040256E40DC
