:20000000009000203938000093330000F32F0000FF310000FF310000FF310000FF31000017
:20002000FF310000FF310000FF310000FF310000FF310000FF310000FF310000FF31000040
:20004000FF310000FF310000FF310000FF310000FF310000FF310000FF310000FF31000020
:20006000FF310000FF310000FF310000FF310000FF310000FF310000FF310000FF31000000
:0C008000FF310000FF310000FF310000E4
:20008C00F0B58DB00446C26A016C03F026F8E16F4A1C904201D93526AAE1002813D08800A3
:2000AC00226C17180837891C384603F0DCFBA168384603F02FFB002807D0E56F691C884205
:2000CC0005D9C62694E1532692E16C2690E121786626022900D28BE1052900D988E10126C1
:2000EC000329334600D30023216C0A6832405A400C968026A2510990E06720463A460B46FC
:20010C0002F0ECFA20784000001F0C9F39468140A151216C20460A4603F034F8E567E16C2C
:20012C0020463A4603F001FBA36FE56F626EA06EE16C0095B04DA847A36FE66FA26EE06E07
:20014C00E16C0096A847A36FE66FA06EE26EE16C0096A847226B216F204602F0BEFFE56FA4
:20016C00A84201D93C2643E100280FD0A36FE26E216F606C03F014FC626B216F204602F0AC
:20018C00ACFFE56FA84203D9652631E1C3262FE1064600280FD0A36FA26E216FA06C03F0F4
:2001AC00FFFBE268E16E204602F097FFE56FAE4203D95C261CE156261AE126468036A36F68
:2001CC00A26EE16E206F03F0EBFBA36FE56FE26C206D216F03F0E4FBE06F421C0B963260C9
:2001EC00666D00252778B81E0123194681408D4209DA616C304603F021FB0B9802689000A1
:20020C0036186D1CEEE70C93A06D00250B9EBB1E0C9999408D4206DAA16C074603F00EFB50
:20022C0003F013FBF3E7E06D0025BB1E0C9999408D4206DAE16C074603F000FB03F005FBE4
:20024C00F3E70A9709984001421C216C08788007C60F00200890099003460C9F0292BA4299
:20026C0072D93D4637460793501B0A9EB04232460B9B00D802461A6020462A4602F0D4FE36
:20028C0009994018C1B2731E012632469A4091420C9501DA084600E04042914206963546F2
:2002AC0000DA002529460A9A914008180006800D001F04218843FEB2B7005249C919089A07
:2002CC0052008918495D89004F4A925D891808180B990860204600F0A3F86A0005924B4816
:2002EC000497C1198918099A8A5C4948C11920780A90801E0390095C0C9F7F181F233B4021
:20030C0079098D00216C4D59DD40069805400992554005235D430A2070433E4A10184019B1
:20032C00142575433C4A5519039A5343EA18079BD35CC65C3948049A8018059A8018089A14
:20034C00825C0892029A8AE7099801280A9810D108988000C01C0B9E3060284D2046A847C0
:20036C00012030602046A847022030602046A8472078992603283BD3811E01200C908840B0
:20038C00FE300021C9430A910B9D0C992960C7B2002F11D07A1C2046394601F049F80C98AB
:2003AC0028602078801E0A998140C94320463A4601F03EF8781EE8E72078801E0A9F394633
:2003CC008140CA430021099120460D4B98470C9828602078801E8740FA432046099F3946F8
:2003EC00074B98470C9A2A6020463946044B984730460DB0F0BDC046810700002D040000DE
:20040C003D1400001E3D0000A03D0000EE3C0000063D00004A3B0000C8390000363D0000E1
:20042C00F0B589B00446802025580395E06DE26F616F636C08930791E908531C4B43D9B2EA
:20044C008F00C0190690A807060F05A88159A36F206E0092C44D0A46A847E06E616E08910F
:20046C000790069105A88059A36FE26FA16C0092BE4D0A46A847E06E216FA26C636E089318
:20048C000791069205A98959E26D236EE56C08950793D2190497069205AA03F041FAB24D2E
:2004AC00A847606EE16EE26C06AB07C305A88059E26F521C03F0C2F9E06E216F089007915A
:2004CC00069005A88059A36FE26F216E00920A46A64DA847206FA16E08910790069005A82D
:2004EC008059A16D226E636E08930792C919069105A98959A26CE36C656F0892079506936B
:20050C0005AA03F00DFA984DA847206E616F08910790069105A88059A36FA16EE26F0092A3
:20052C000A46924DA847234660330ECB08920791069305A88759E56C606F08900795069179
:20054C0005A9895908930790069205A88259A36FE06F00903846844DA847226E606E616F50
:20056C0006AB07C305A88559A36FE16EE06F009028467E4FB847A36FE06F226D216E0090E0
:20058C002846B847E06C616E226E06AB07C305A88159E06E626FA36E06AD0DC505A88059FA
:2005AC00A36FE26F00920A466F4DA847616EA26DE56E0895049FD2190792069105A9885924
:2005CC000290216F226E636F08930792069105A98959E26D636C0893D2190792069505AAA9
:2005EC0003F09EF9604DA847606EE16DE26E0892C9190791069005A88059E16F4A1C0299DC
:20060C0003F01CF9E06E216D08910790069105A88159206E226F08920790069205A880592E
:20062C00A36FE26F00920A46504DA847606E616FA26E06AB07C305A88059216EE36E0893B3
:20064C000791069205A98A59A36FE16F0091484D0146A847226F216E206D0890079106929A
:20066C0005A88059636E06AD0EC505A98959636CA76E08920797069305AA03F04CF93A4DDE
:20068C00A847616F606D626C0892049D40190790069105A88059A26E08920791069205A924
:2006AC008959226FE36E08930792069305AA03F032F92F4FB847E16E606F0890079106906F
:2006CC0005A88059626D636C089352190792069305AA03F020F9264FB847616FA06EE26E55
:2006EC0008920790069105A88059636D089107925919069105A98959636E276E0897079366
:20070C00069205AA03F007F9174FB847616FA06DA26C089240190790069105A88059049008
:20072C00A06EE26E636E079306920425039F3D402D1D05AF7F5908970790069105A88159DA
:20074C00206F276E0792069305AA525908920797069005A88259A36FE06F00900498044CAA
:20076C00A04709B0F0BDC0468107000025090000AD090000F8B444464D4656465F46F0B400
:20078C0000B501B40B9B5B005B1C6C469B00E31A9D4610B46C46241D00266D46009CE36AC5
:2007AC002D1D9B00EE505B00EE50E36A013B9B0098465B009946002300240025002702E0C0
:2007CC00370040463F1A9A46A346AC46B646F01B1458C859030C80B2250CA4B21E006E4311
:2007EC006343454360431C041B0C00195E412C042D0C00196E4153465C4665461B1874411E
:20080C000020454176460437474501DCB742DADD6846001D835123462C46002504364645B2
:20082C00CCDD4E45CCDD8351009B9969083102464E4604361068009B9C6924684443A146F5
:20084C0000270023002400259A46A346AC46B6464C46C859030C80B2250CA4B21E006E43F8
:20086C006343454360431C041B0C00195E412C042D0C00196E4153465C4665461B1874419D
:20088C0000204541D0591B18002044414541002F02D0043FD35104370437764623462C46AA
:2008AC0000254745D0DD301D8742EBDD043FD351043E464500DDBDE710BC2068E36A9B46B9
:2008CC00024691466846012720C840C97F08B5417F4120C2013BF7D105682F430126F741C5
:2008EC00FF17FE4368463840494631400843494639406D46354029435B4604C904C0013B1A
:20090C00FBD1A54603BC8E46F0BCA046A946B246BB46F8BC7047C046F0B444464D46564639
:20092C0070B48146079CA246002720C940CA7F0875417F4120C0013CF7D1B8464846083372
:20094C0054466A46A400141BA54604B46A46121D5446012720C840CB7F08B5417F4120C218
:20096C00013CF7D1424617430126F741FF17FE4348466946091D0D46384031400843494655
:20098C0031403D402943544604C904C0013CFBD101BC854670BCA046A946B246F0BC7047D9
:2009AC00F0B444464D46564670B48146079CA246012720C940CA7F08B5417F4120C0013CE3
:2009CC00F7D1B8464846083354466A46A400141BA54604B46A46121D5446002720C840CB29
:2009EC007F0875417F4120C2013CF7D147460126F741FF17FE4348466946091D0D4630409E
:200A0C00394008434946394035402943544604C904C0013CFBD101BC854670BCA046A94660
:200A2C00B246F0BC7047C046F0B444464D4630B4884699466C469B00E31A9D4610B46C4654
:200A4C00241D4B460832012720C940CA7F08B5417F4120C4013BF7D16A46121D0125EF4109
:200A6C00FF17FD43414629403A4011434B4610C910C0013BFBD101BC854630BCA046A946CB
:200A8C00F0BC7047F0B58FB00E9316460D9104468168856A284602F062FDE067002804D044
:200AAC000746FF2803D9282034E16C2032E1287AC00701D182202DE1781C810068580028F6
:200ACC0039D0099615980B9020460E460C9129463A4601F017FBF80008954519083520463B
:200AEC00294601F079FBA36FE06F0090A819061D304629462A46FFF70FFFE06F40018021B7
:200B0C0060500C983018011D20460A9632460E462B4601F00FFD0146E06F421C284602F07B
:200B2C008DFE204631460B9A02F0D7FAE26F904203D92220EEE02320ECE0002833D00C98EC
:200B4C0030180690314607960B9525468035A36F00920A9E30460B9AFFF70CFE2078801E3A
:200B6C000321059181400C31049529602046314600F046FD0146E06F421C304602F05EFEC7
:200B8C00A36FE06F00900798069D31460B9AFFF7F1FD204629460E9A02F09FFAE16F8842F4
:200BAC0003D92720B6E02120B4E000282DD02E46149803900C9828180E90A36F00910B9DF6
:200BCC0028463146079AFFF7D5FD01222046314602F0ABFDA36FE06F00900E9829463246A3
:200BEC00FFF7C8FDE16F02C5A26FE36F029528460E99FFF719FF20463146039A02F06DFA27
:200C0C00E16F884203D9112084E0722082E000287FD00C9A0E988018801880180C90A36F10
:200C2C0000910A9E3046069D2946079AFFF7A2FD01222046294602F078FDA36FE06F009061
:200C4C000E9831462A46FFF795FDE16F3046079E02C0A26FE36F01900E99FFF7E5FE606909
:200C6C00A1690C9AA2620B9DE56220636163204601F05EF999284DD102F09DFD41180C31CF
:200C8C00304602F0DBFD02F07AFC41180C31069802F0D4FD2046FFF7F3F999283AD120462F
:200CAC000E9902F0A7FA0A98E0620D9820630998606302F080FD40180C30314602F0BEFD57
:200CCC0002F05DFC40180C30069902F0B7FD2046FFF7D6F999281DD10220049908600026BD
:200CEC00204631460E9A00F0A3FBA5630A98E063204600F0ABFFE16FA06B02F021FD002855
:200D0C000BD0E16FE06B02F01BFD002805D0E32000E01220C0B20FB0F0BD78000E90089D9C
:200D2C00A562E76FA168284602F019FC0246E0672046294601F0E6F90E98381880004019C9
:200D4C000C30791CE26F531C994202D240C0491CF8E70A9D2A60A26FE36F01980299FFF745
:200D6C0063FEE06F421C2846039902F06FFC01465A200029CED0C043CCE77047F0B5FFB0A9
:200D8C008CB00493154606468A910468204602F086FD0021899122189098009002929442D4
:200DAC0044D285A80022027303928592641C0F46601E0078002834D0252806D03460294684
:200DCC00049A9047641C7F1CF2E7601C019030608997207885A908730399CB43732809D181
:200DEC008AA989AA28461C46049B00F021F82346899911E005AC85A98AAA2046039300F08E
:200E0C0035F8024620462946009B9847039B411C194600D0C1198991029A019C481CBED1B8
:200E2C0000E03B4618467FB00CB0F0BD0B46F9E7F8B504460868051D0D600668002E11D0AB
:200E4C00009414461D46304602F029FD07462068C01920600024BC4207DA305D0099A84761
:200E6C00641CF8E7002021469847F8BDF0B585B000920E46044600250395FF270197FE3732
:200E8C002022394602F0D4FB0295E5557F20800020180490317B252950D0E719782915D068
:200EAC00642913D06F2911D06329019B1FD1009D29680A1D2A60096801701846FC302018A2
:200ECC000490C8B241424141029110E003A904AA3046009B00F038F803980028019B06D0B0
:200EEC0004982D210170401E0021029100E00498391A0029254601DC611A4D1C411C5B009D
:200F0C0000262846324602F0E2FA029F002F01D00670401CA04206D8211A491C401E202278
:200F2C0002F086FB2670291B2022204602F080FB204602F0B4FCC01905B0F0BD0020607010
:200F4C00252020700120F7E7F8B514460D460646077B194600F014F8317B642904D10028F8
:200F6C0002D50121296040426F2F01D00A2100E00821782F00D11021224600F011F8F8BDFF
:200F8C00007B642805D06F2803D0782801D0702804D10868021D0A60006870470020704732
:200FAC00F8B514460D460646002804D12068411E2160302101700A4F002E0DD0304629460F
:200FCC0000F010F821684A1E22602A464243B21ABA5C0A700646EFE7206802F060FCF8BD9C
:200FEC00CC3C000080B5102903D0082903D1C00880BD000980BD01F0F7FF80BDF0B58FB044
:20100C0006910446844800680B906021204602F017FB099420340025814F824E022D10D064
:20102C00284602F027FCC0B2214602F0EDF9002804D07A483946324601F092FF2C346D1C50
:20104C00ECE70024099E3546022C0DD00023304621462A4602F0B2F8002802D12C35641C78
:20106C00F2E7002C00D1C5E00CA80027078034463D46022D0CD0216A204602F0B1F90028CA
:20108C0003D00CA8012141557F1C2C346D1CF0E7002F00D19CE0002005900897B84200D10F
:2010AC0098E00A9000203146024603461E461546022822D00CAA125C002A08D0002E09D0E2
:2010CC00327D0B7D934202460B4605D807D22A46334601E002460B462C31401CE6E7727DD1
:2010EC004B7D934202460B46F6D8F0D3F28ACB8A934202460B46EAD9EEE747480468002724
:20110C003846294602F0BDFBC0B20DA902F07CF9002851D12C206843099908180B900024DB
:20112C002046294602F0ADFBC0B20EA902F06CF9002826D00B9A107CC00637D40D9B0120CB
:20114C000790000238490091019002940394049420462146144600F06BF80B900D99204661
:20116C000C4602F03DF9002804D0304800680B9981421DD0A2680021204601F05BFE07983F
:20118C0015E00E9802F042FB079404460E9801F0C0FF079803460B9A042807D0115C401CE5
:2011AC00A142F9D0401E03281C46C4D901200B900D9801F0AEFF0B9C1C48006884420B9418
:2011CC000AD00CA847550A98401C099E089F65E7032712E0059F10E0002E0DD0069A166070
:2011EC002C206843099E3018006A417811714068906002E0074600E0099E4C2420460C30F8
:20120C0004D0305901F085FF2C3CF7E7002F0B9800D038460FB0F0BD54250020403A00000B
:20122C00483A0000F40800002021002058250020F0B5C1B00793144678480068029002F070
:20124C0039FA4898002804D04999012901DB02F03DFA4A98039047980690469F2089E168A1
:20126C00081804946189401800260590B04213D9801B069CA04200D80446079831463A46F8
:20128C00234602F08BF900280BD13846214602F01DFAA6190598E9E708A802F0FFF9002586
:2012AC0000E0054600F0BDFE002D00D0B2E00398002803D008A9202202F06AFB0026009621
:2012CC0030A8574B0499079A01F0E6F80546002800D09FE0534800680690F7433C460596C9
:2012EC000396264630A838A937AA36AB01F02EF8002800D57EE000D07EE036A80088222812
:20130C001ED1002E3C46ECD4069886423C46E8DA37A80388802B00D976E0389910AA07984A
:20132C0002F03CF9002865D137A80388F0B2009008A8202110AA00F089FB02903C46D0E796
:20134C0001281CD010283446CBD137A8008820285AD1389910AA2023079802F01FF90028A5
:20136C0048D108A810A9202202F006FB05462E4800680121059185423446B2D04AE037A8FD
:20138C000388202B40D8389910AA079802F006F900282FD137A80578202D3C46A1D8039CCD
:2013AC000495069884421FDAE00020490D580818466802F07FF931682846049D02F086F92C
:2013CC0039A802F06BF9002D10D010A839A92A4603780E789E4205D1521E491C401C002AA1
:2013EC00F6D104E0641CDCE73C4600E0002400F018FE76E705460DE00598002806D00A48E5
:20140C000068029F874203D13D4603E0012501E002480568284641B0F0BDC046542500204B
:20142C00FFFF0000A83D000058250020903D0000FEB51646044680202058E76F7A1C0228CC
:20144C0008D001280CD0002815D1666CA06C0190E06C03E0900033180193181802900DE0D9
:20146C005643B000636DA66DE56D2D180295351801951E1802E0002601960296A36FE06E56
:20148C00E56D009751438F00E9195B4D0A46A847A36FE16FE26E206E00913146A84702F022
:2014AC00DBF90199A8472E46A36FE56FE26E216F606E0095B0473546A36FE16FE06E0091F3
:2014CC00029E31463246A847A36FE16FE26E206F656D0091E919484DA847474DA36FE06F63
:2014EC00616DA26D0090C819D1193246A847A36FE06FE26E616DA56D0090E819C9193E4DB2
:20150C00A847A36FE06F226E216F656D0090E8193A4DA84702F0A0F93146374EB047A36FE6
:20152C00E06F226F616DE56D0090E819C919B047A36FE16F626E206FA56D0091E9192F4D53
:20154C00A847A36FE16FE06E626D0091D1190A46B047A36FE26F216FA06E00920A46B04775
:20156C00A36FE06FE26E216EA56D0090E819B047A36FE26FE16E206E656D0092EA19B047E7
:20158C00A36FE16F226EA06E009101461B4EB047A36FE16FE06EA26D0091D1190A46FFF787
:2015AC00BBF9A36FE06FA16EE26E656D0090E819B047A36FE16FA06E626DA56D0091E9196D
:2015CC00D219B047216F2546743529CDA26E0095094EB047A36FE56F226E616EE06E0095E8
:2015EC00B047616FA36FE06FE26EA46D0090E019024CA047FEBDC04681070000AD09000099
:20160C00F0B589B00391C16F082901D3052600E00426032900D20326024680320892002205
:20162C000123079008981CB2A64209D3641E0125A540EC1C0568A54200D31A465B1CF2E745
:20164C00D0B2441E01274B1C9A00A3409B00039DEB1804939E18B21806920290022807D30B
:20166C000798836F0091069829462A46FFF782F83846A04005902C46079D38B205998142FB
:20168C000FDDAB6FE86F009080000019001D2146069AFFF76FF8E86F80000019041D7F1C8B
:2016AC00EBE7A86F8468A01E08990860284606990F4602F05DF9611E484248410121EA6FCB
:2016CC000BB29A4210D9AC6F9A0013199B68C4B2012C06D10020002B01D05B1E01E0C343A2
:2016EC000120BB50491CEAE7521C0498039902F0A5F8A96FE86F820051184A6800213B4699
:20170C00002A02D0491C5208FAE74001411822390498044608B200284FD41F2008408AB27E
:20172C000F46510989005958C140C80738D005970898029901602846194601F08BF90490CE
:20174C0000252746E8B20899096881420CD90798836FC06F0090304639463A46FFF70AF8DA
:20176C006D1C34463E46ECE7079DAB6FE86F00900499491E8AB2D20B8918490889B2401CB8
:20178C004843800003990A1830463946FEF7F2FF089800880599091A30463E46069BB8E776
:2017AC00AB6FE86F0090304621462246FEF7E2FF069B791E30462646ABE7E86F421C039D00
:2017CC002846214602F03AF8284609B0F0BD7047F8B515460E460446806AA067616801F028
:2017EC00BEFE0246E067A16F204600F08BFCA06FE26FD100091808319000001D0A18131820
:20180C001818274660370EC7E0663F4F20463246B847616E20462A46B847A16E626820461F
:20182C00B847304602F0BAF8E16FE426884268D1284602F0B3F80146E06F814261D1206E02
:20184C0001F07EFF002807D0E16F606E01F078FF002801D0E32654E0A36EE16E226E2046FD
:20186C0000F0B2FEE12601284BD1E16EE06F80000858002845D1626EA36E204600F0A4FEDB
:20188C00E22601283DD1E06EE56FA9004058002837D1A36FE269216EA06E00951B4DA84704
:2018AC00A36FE26FA16E206E00920A46A847A36FE66F226A02F043F8A36FE66FA26EE16E65
:2018CC00206E0096A847A36FE66F626A02F037F8A36FE66FE269616EA06E0096A847A36F6F
:2018EC00E26F606EA16E00920A46A847E26FE16E606E01F0ABFE002801D11A2000E0192088
:20190C00C643F0B2F8BDC046E730000081070000FEB5002907D00D460646464F0024072F75
:20192C0003D8204603E0002481E03846083885427DD8414800688047701E082106423046EB
:20194C0000D00846072E00D80846E91D029107213A4A1378002B1BD1072F01D8002301E008
:20196C003B46083B2546002B04D1364B00241C602C460BE0324B00249C60324E3360072FC8
:20198C0001D8274600E0083F2C461F60012313700094029A8A43029241420191421E294CBB
:2019AC002568002D35D02C460834161901990E40B44210D02B4610333746083F9F4201D295
:2019CC003618F9E7029973182F6801218F43E1199942E5D306E0296801239943029B9942A0
:2019EC00DEDB2646284601F007FEA64216D0301B014608392A6829600123DC432240101AC7
:201A0C00184321406C18A060284601F011FD083405E00D4800688047009C08E02C4620460C
:201A2C00029901F0ADF808480068804708342046FEBDC04600200000602500206825002015
:201A4C00000000209023002064250020F0B597B01E4617460D4601901C98C00038490A58F6
:201A6C001292081840680068111812A816AA302301F01AFD002804D00020C443204617B038
:201A8C00F0BD169812990C1812A802AA13AB214600F0E0FD0028EFD103980728ECD10498AD
:201AAC002849072201F0ECFD0028E5D114980828E2D115982449082201F0E2FD0028DBD151
:201ACC0012A816AA214601F02FFC0028D4D116994129D1D112984118A142CDD1017804294B
:201AEC00CAD1401C12901397BC1913A816AA3023214601F0D9FC0028BED116981399081896
:201B0C00A042B9D802A813A9224601F043F90028B2D102A8203013A9224601F03BF900213C
:201B2C00CC43202DAAD10028A8D1FFF750FE129802AA019901F0DCF80446FFF71EF99DE74D
:201B4C00903D0000983D0000843D0000F8B5002872D00446394800688047083C384800251C
:201B6C00A04207D20168012291434118083105460846F5E7324A3349072901D98A18083A51
:201B8C00016801270B46BB43C6180836964200D90026A0424DD1C8074BD0002D0AD02968E4
:201BAC003940284600D00020002E06D1002932D100260BE0002E2ED000203178C9073146C4
:201BCC0000D0002100280FD00E460546284601F013FD002E0CD10120C043216801402A6868
:201BEC0008320240501813E0002500292F4612D0304601F001FD0120C043002F0FD021683D
:201C0C0001402A6810320240511832680240881828602C460AE020680121884305E03168A5
:201C2C00014022680832024050182060204601F0FFFB054800688047F8BDC046602500203C
:201C4C00000000200020000064250020FEB50446C06F451C8027E551266C616D374B3046CD
:201C6C0002962A469847E259361DA80030180190A16D324B9847E259E8003518E16D2846CC
:201C8C002E4B98472078801E03218140C81DE05120462946FFF7B4FC606EA36FE16F009173
:201CAC00274F29462A46B847A36FE16F206E626E00912946B847A36FE06F226E0090284616
:201CCC00019E3146B847A36FE06F626E009030460299B8476168A06F01F041FCA16FE26FAB
:201CEC00204600F00FFA216F0122204601F01DFDA36FE16F226FA06E00913146B847A26F3C
:201D0C00E36FA16E3046FEF78FFEA16B2046324601F0A9FCE06E226FA36FE16F009129469D
:201D2C00B847A26FE36FE16E2846FEF77DFEE16B20462A4601F097FCFEBDC0464938000020
:201D4C0081070000F0B585B00D460646394800688047284600F0B0FE0021CC43002863D02F
:201D6C00A868EA68735C491C002BFBD16B6907273B40491E042B009401910DD100240F463A
:201D8C00002F49D0311928683A4601F079FB002844D43F1A0419F3E70297131A0C460395F0
:201DAC00002C39D09C421F4600D827466969029A11400229049311D1002F07D00021725C02
:201DCC000A2A06D0491C8F42F9D107E000252F4605E0721802D04F1C012500E0002531461E
:201DEC003A4601F0D5FD03998868C0198860E41BF619002D0D46049B01D1DB1BD0D1284643
:201E0C0000F0A0FF002809D16869202101436961A868E9680B1AC3E7019C05E001208002B0
:201E2C00696901436961009C034800688047204605B0F0BD6025002064250020F0B5FFB036
:201E4C00FFB0D3B0054631A80321018053A93B912D493A912D4939912D4938912D493791B5
:201E6C002D4936912D4935912D4934912D4933912D4932912C305C2101F0E2FB0920C44358
:201E8C0028684168412939D100680078042835D1082028901F9016900D900490686816A982
:201EAC00091D224FB847A8680DA9091DB847E86804A9091DB8472868006828AE311D401CFB
:201ECC00B847286800681FAD291D2130B84731A831462A46FFF77CFCE6280ED104A8019045
:201EEC000DA8009031A828A91FAA16ABFEF7CAFD0024A52802D0E44300E0093420467FB005
:201F0C007FB053B0F0BDC046F43B0000AC3B0000603C00003C3C0000183C0000D03B000047
:201F2C00883B0000843C0000A83C000065330000F0B587B00446806AA067616801F00FFBBB
:201F4C00E067002804D00246FF2803D9D22066E0082064E0A16F087AC00701D1DC205EE0DE
:201F6C0090000B185B68002B58D0D3005B18083304931D180835561CB0002B1803931B18D4
:201F8C000693069B1B1802931F1805972778BF1EBE40B600059B9F19BB190193049B23644A
:201FAC006564039BA364069BE364029B2365059B6365A765019BE3659B1906931D182E187A
:201FCC0037183B1818180590069820666566A666E766236705986067204600F093F8E16C2A
:201FEC00204600F0F9F8A36FE26FE16C206E00920A46FEF791FCE06F400180216050226E7B
:20200C00656EA16E20462B4600F094FA0146E06F421C284601F012FC992000E0302007B07C
:20202C00F0BD7047F0B585B0049316460F4605463048006880470024E1432868401C04D014
:20204C00042E049B03D0002B01D10C4646E002976F6968682A1D0392002801910CD0390768
:20206C0003D5401EFFF772FD049B0398046044608460C460082087430120002E014600D017
:20208C003146072297430F436F61190A1E4600D006020298002806D0012B04D00298401CAB
:2020AC00039908600CE0761C304601F029FC03990860002818D008210F436F61401C686083
:2020CC008119491EA860E96028610B4800688047084800688047094809490160064800685E
:2020EC008047204605B0F0BD0120800207436F61019CF3E760250020642500204C25002032
:20210C0035320000F0B585B00092049003918E68C8680024B51C0746034601906741284660
:20212C003946324601F0F8F901F0F0FB05460F4602963246019B01F0EFF901F0E7FB05469B
:20214C000F463246019E334601F0E6F901F0DEFB01F0EBFB01F0DAFB01F0E7FB801C614146
:20216C002A463B46009F01F0D7F9039B03C3B800083BC1184968CA0F049D6A70002911D4B7
:20218C0019460831002202243B46002B1ED00D68ED43EE0F6D002C190C505641091D5B1ED3
:2021AC003446F2E71946083101233A462546002A0CD00E68F643F6180E501D436B1E9D4131
:2021CC00734273412B40091D521EEFE7049803998167C76705B0F0BDFEB50D460446022091
:2021EC0000900290E06F801C0299814202D201F0D9FAF6E701222046294601F096FAA36F68
:20220C000833204629462A4600F0CCFE01F0EEFA02D001F060FB01468020215001F09CFBA1
:20222C0001F05FFBE06F800000272F500297281F019026468036E06FC10E09074942029AEA
:20224C008A4221D28100019A5118012807DB4A884B681B049A184A60091F401EF5E7286831
:20226C000004286001F0C2FA02D001F034FB0146316001F071FB01F034FBE06F80002F5084
:20228C000298401C0290D6E700990291801C0299814204D201F086FA0290E06FF6E7FEBD07
:2022AC00FCB5034604680D1B5F20C043012D0ADB2678370608D4651C1D6026781660491BC2
:2022CC008E4200D80020FCBD7F273E40761E032E31D8B60001A7BE59B746C046F9220000EC
:2022EC0047230000052300001D230000022DEAD36678A51C1D60E1E7042DE4D3E578019555
:20230C00A7786678251D1D6033043C02E3180FE0052DD8D325790195E5780095A778667896
:20232C00651D1D6033063C04E318009C24021B19019C1E19C2E7001FFCBD032DC3D3A678EF
:20234C006778E51C1D603B029E19B7E7F0B585B00026F743002834D004460068002830D042
:20236C00606800282DD0019302910392216960690125814226D220684089002804D0E068DF
:20238C00814201D1091D2161606804AA042301F005F9002815D1A07A002803D0E068216973
:2023AC0081420FD22089124988420ED004A9098881420AD0206904A949880818011D21611F
:2023CC00D5E73D46284605B0F0BD0199002901D0049808802069001D0299086004A840880D
:2023EC000399088021694018001D20613546E9E7FFFF0000F0B58B4200D1824204D90B00F5
:20240C0002000021002040E0002B00D1002A0CD10B00020000210020002B00D1002A01D005
:20242C00C943C04300F099F92FE01C0015000B0002000CB4002126002F00FF19764102D2D9
:20244C00491C4029F9D100201E001700FF19764102D2401C4028F9D10E1A210028003200AF
:20246C0001F0ACF80C0005000CBC00200021A34200D1AA4201D3521BA341404149416D085A
:20248C00E7073D436408761EF1D5059F002F01D03A607B60F0BD7047F0B585B00024E74357
:2024AC00002812D00E4600290FD0002A0DD0054603933089F1680918104604AA04230290D2
:2024CC00019101F06BF8002802D0384605B0F0BD708904A90988164B5A1C9142039A11D1D0
:2024EC0004A949888842F0D10199091804AA0423029801F053F80028E7D104A80188039AAF
:20250C000B4B01E00028E0D19942DED10A98A8722A812E60029868600199081D286170897D
:20252C000818E86004A94988401868612746CCE707690000F0B587B01E460F460446836F27
:20254C00C06F0090084611460292FEF713F9802005942058049001200390C40700210A4641
:20256C00002C2ED0002A06920DD00598836FC06F009030460D4639463A46FEF7FBF8294619
:20258C0030463E460746254604980540002911D0002D11D00598836FC06F00903046069129
:2025AC003946029AFEF7E6F806993846039A3746064603E0069A01E00025039A29436408A0
:2025CC00CEE7384607B0F0BDFFB5029000921468250C01931E68F7433F0C7D191C4FB74339
:2025EC00A4B2E419641C260CA81903900604A4B234190C60012087B2029AD46F651CBD42A4
:20260C001AD9BF00009AD459250C019AD2590E46D3431B0C5B190E4D9543A1B2039A120CF8
:20262C00891849190A0C9A180392130489B25A183146F251401CDEE7A0000A58521C01D04E
:20264C00002003E0081800210160012004B0F0BDFFFF0000FEB51C4617460E46054602AA8C
:20266C00302300F021FF002800D0FEBD2868311A6522D243012929DB019201783A4602C243
:20268C000299461806232846314600F00DFF0028EBD12868B8607868296808182860B04294
:2026AC0016D00178401C2860224602C228463146FFF7F6FD0028D8D12868A0606068296817
:2026CC0008182860B04207D00198FEBD901DFEBD0C21204601F048F80020FEBDF0B586B047
:2026EC000593049280220290805882B20192000C009000273C463D46009E0298C06F8542D7
:20270C0026D2049A01CA04920391010C019A13464B43DB1987B2104678430019059A10CAC3
:20272C000592A2B28018020C9A18130C7143591892B27743230CFB189A18130CC9188CB2D6
:20274C000F0C110480B20818039901C16D1CD4E738042043086006B0F0BD7047FEB504462B
:20276C000025EF430168481C06D002916669204600F0E8FA002802D03D462846FEBD0120F2
:20278C00000306400196207D000707D56068401EFFF7DCF960690821884360616560A56094
:2027AC00E560206800F01EFB0546276001980028E3D006480068804702980001044908186C
:2027CC0001F0E2F8034800688047D6E7602500202022002064250020F8B50446154F386840
:2027EC008047002C04D0204600F0ACFA04461BE0114800680024114D0094844213DA2968AA
:20280C00491C0DD038688047284600F09BFA06460B480068804700983043009006480068F1
:20282C001835641CE9E7009C0548006880472046F8BDC046602500205C2500209423002099
:20284C006425002070B514460D4606461648006880473068401C1FD0012C08D1307DC006BC
:20286C0005D5B068002802D040193169451A304600F068FA052040027169814371613068D7
:20288C002946224600F0E8FD0446084800688047601C06D0002404E00448006880470020C2
:2028AC00C443204670BDC0466025002064250020FEB5044600680026815D002903D03A2956
:2028CC0003D0761CF8E7144D23E08719124D20D0082E00DB0826002E11D06A463146037865
:2028EC001370002B05D0521C491E401C0029F6D105E0022903D3501C491E00F0A1FE684632
:20290C000021815500F006FC002802D0791C216005462846FEBDC04684240020F8B5174666
:20292C000E460546144800688047380A134CE071A771300E6071300C2071300AE070A670DB
:20294C00280A60702570F420002521462A462B4600F09EFC2046294600F080FCE578A6780D
:20296C00277864780648006880472002C0193104401829064018F8BD60250020882300201F
:20298C006425002070B59AB00D46064614480068804701AC2046314600F07AFF304600F090
:2029AC008CFF06460019401C294600F071FF284600F083FF3018831CF7200A4D29462246E4
:2029CC0000F066FC0021284600F048FC2C786D780548006880472802001900B21AB070BDE5
:2029EC00602500208823002064250020F0B5184A0378401C0024082CFAD00578DE070DD172
:202A0C002D0147783E0976190F253D40ED1C122D0AD185782F0609D4C01C0DE0401C0D7062
:202A2C00491C641C5B08E6E7801C06E07F273D40C778FF017D19001D1235964207D0F643AF
:202A4C00002DEED08F5D0F706D1E491CF8E7F0BDFF0F0000FCB58023C45880300023DF4325
:202A6C00944205D90B68541C0460A740BB431AE0521C161B1F25730901952E40DBB29B00E5
:202A8C000093CB58F3403D46A540AB433519212D09D3019D2A409740009D69184968B943C9
:202AAC00A21A9140CB18611EDA0703D10160491E5B08F9E7D8B2FCBD10B504460168002080
:202ACC00491C25D06269D10623D4100605D500210222204600F054FF6269900604D450068A
:202AEC0002D52020024362616168012000290DD1042111400AD107200240012003020021B9
:202B0C002046FFF78FFA014640424841E168216110BD012189020A43626110BD1FB500F08C
:202B2C0079FD00F07BFE01A800F068FE002816D1019800681149884211D17D2082000F2047
:202B4C00032100F0D9FB0198008903990A5882F30888081840688047002004B010BD00F03C
:202B6C0059FD0E240A213222204600F0C5FB7D20C2000221204600F0BFFBF2E73DB8F39643
:202B8C00F8B50446026801251046A843401A102821D366180838B060A84308363718083756
:202BAC000E480F4A072A01D910180838009187420DD23878C0070AD1384600F01DFDE843A9
:202BCC003968014032680832024050183060304600F02EFC009A2A432260F8BD000000200B
:202BEC0000200000F8B514460F460646114800688047380A104DE870AF70200A68702C70C5
:202C0C000023F05C5B1C0028FBD1F0202946324600F03EFB0021284600F020FB2E786D7889
:202C2C000648006880472802801900B2002800D42046F8BD60250020882300206425002066
:202C4C00F8B517460C460546104800688047380A01D001200702380A0D4EF070B770280AA7
:202C6C0070703570F22000223146134600F010FB3046214600F0F2FA3478757805480068BD
:202C8C0080472802001900B2F8BDC046602500208823002064250020F8B515460C460646F2
:202CAC00104800688047280A01D001200502280A0D4FF870BD70300A78703E70F3203946D1
:202CCC0022462B4600F0E4FA0021384600F0C6FA3C787D780548006880472802001900B2D8
:202CEC00F8BDC046602500208823002064250020F0B599B014460191074602AE0420307059
:202D0C00701C202539462A4600F042FE30462130203739462A4600F03BFE17AD41222846EC
:202D2C00314600F039FE01981490139515942034169413A8FFF782F8002801D00020C04316
:202D4C0019B0F0BD70B504460025EE430068411C17D0616863699A060AD5002908D0A26861
:202D6C00521A05D000F08CFB00280DD463696168A1602161580605D5302083430025636137
:202D8C0000E03546284670BD01208002636903433546F4E77CB513460C46064601AA02252C
:202DAC00084619462B4600F07FFB002801D0E8437CBD019D202D05D32068411920392022E2
:202DCC00304608E02020411B304600F039FC701B203021682A4600F0DBFD20684019206055
:202DEC0000207CBD70B50026F44300281AD40546092817D80C4800688047E8000B4A115842
:202E0C0000290CD015186868096988470446401C05D028682E6041890122914341810448FB
:202E2C0000688047204670BD60250020FC24002064250020FEB50025EC4343787F2B19D1E0
:202E4C000195029440684518AC180B4FA54210D23E6800203860094802680948294690479E
:202E6C003E6000060121C9026D180028EED0029C00E0019C2046FEBD244402405800000FFD
:202E8C008FA0E3B7F0B58023C3581C0C15682E0CA4199BB2ADB25D192B0CE3181C04ADB28B
:202EAC0064190C600124E5B21B0CC66FAE420CD9AD005659370CB6B2F618330CDB191F04C5
:202ECC00B6B2BE194E51641CEDE71846F0BD7047B0B505460D4800688047280A0C4C607064
:202EEC002570F120002521462A462B4600F0D0F92046294600F0B2F925786478054800685C
:202F0C0080472002401900B2B0BDC046602500208823002064250020B0B504460D480068B9
:202F2C0080470023E05C5B1C0028FBD1F5200A4D2946224600F0ACF90021284600F08EF916
:202F4C002C786D780548006880472802001900B2B0BDC046602500208823002064250020DF
:202F6C00F8B516460C46054600F0A0FC0746204600F09CFC3818263000F0C2FC002808D084
:202F8C000746009605492A46234600F0DFF8384600E0034800F0A6FBF8BDC0461D3B000007
:202FAC00053B0000FEB500AC0EC4014600252846AEB2CF6FB74215D9B600019A97593C0CAC
:202FCC00029A93591A0C1219BCB220189BB2C018030CD218130480B21818009B9851100C2F
:202FEC006D1CE5E7FEBDFEE71CB50A0017D000230124E407A04200D20400944201D9520021
:20300C00FBE790425B41904200D3801A914201D25208F6E719000200080011001CBD01002A
:20302C000020FFF738FA1CBDF0B51F23134080240659F4185209D2B292008958D94000258A
:20304C00ED432F46B740B943212C09D3203CA540006C10184068A8432022D21A90404118E4
:20306C00C8B2F0BD70B50A480A4C84420CD00A4D0A4EB54208D003CD02789200A258083D15
:20308C00401C90470835F4E700BF00BF70BDC0462C3E0000203E0000343E0000443E00006C
:2030AC00FCB4020C0B0CFF242402FF34204021400C00444315005D4306005E430F0057435A
:2030CC00320C3B0CA818C01832043B040025A1186841C9186841FCBC704770B510CAC36FA1
:2030EC005B1C9C4200D823460C461D46002D03D040CA40C46D1EF9E79A0089181A46C46F32
:20310C00641CA24203D2002410C1521CF7E7184670BD704770B5014602780020002A11D0D6
:20312C00094B1A4628321C467834A2420AD000240D5D165D002E02D0641CAE42F8D0AE4280
:20314C00F0D1104670BDC0468424002082B0F8B5069207930291019006A9039107480090FA
:20316C0002A801AA064BFDF709FE0021019A117004B080BC02BC02B00847C0460937000070
:20318C0041390000F0B58023C358DC431368DD430023641B0C601C465C410125EEB2C76F83
:2031AC00B74209D9B6009759E7191C465C417F1E8F515C416D1CF1E7E043F0BD1CB514460D
:2031CC00002000F05EFBC0B201A900F01DF9002801D0012408E0019800212023224600F0FD
:2031EC00DDF90446401E84410198FFF792FF20461CBDFEE7F8B50D460446C06F421C8027BE
:20320C00E251616D074E2846B047E25990002D18A16D2846B047E25990002818E16DB04714
:20322C00F8BDC0464938000070B50A4C2046FFF795FA1834084D28680126864209DA216854
:20324C00002903D42046FFF789FA28681834761CF3E770BD942300205C250020B0B50B4ADC
:20326C0013680024082C04D015192D790555641CF8E7002908D00C32002B05D010780870CF
:20328C00521C5B1E491CF7E7B0BDC0460020002070B50B4C207123600020082804D00D5C28
:2032AC0026187571401CF8E70D34002B05D010782070641C5B1E521CF7E700BF70BDC04613
:2032CC00002000200446094800688047084D6968002901D0204688472868002800D0804734
:2032EC0004480068804700F067FBC046602500204C25002064250020F8B514460091012651
:20330C0086400027074D0098874209D22E60204600F020FA2E61204600F01CFA7F1CF2E7B7
:20332C00F8BDC04610320240B0B515460446032300F0BAF8002800D0B0BD2968481E28608C
:20334C006720C0430229F7D321684A1C226009780029F1D10846B0BD10B51F300022202ACA
:20336C0010D0C31E1B781B06841E24782404E318441E247824021B1904781B198B50001F69
:20338C00121DECE710BDFEE706484178032900D880300078FD2804D30348044901600449F8
:2033AC00416070472F03004E18110040E3887F09E3387F491CB5019007480068804701A861
:2033CC00FFF776FA016A01988847044603480068804720461CBDC046602500206425002051
:2033EC0010B5024603680020064CA34207D1D3681289D21803D28868824201D3002010BD10
:20340C00012010BD3DB8F39670B50022074B1446261D102E07D01D592C7884423446F7D1C7
:20342C000D60002070BDD04370BDC046503D0000B0B5016801229143064B1C68002C06D057
:20344C00256895438D4202D208342346F5E784601860B0BD90230020B0B503460020C0436A
:20346C00002B0AD4092B08D8DC00044D2B59002B03D028194068DB699847B0BDFC240020BB
:20348C00B0B503460020C043002B0AD4092B08D8DC00044D2B59002B03D0281940689B6996
:2034AC009847B0BDFC24002070B5044605684E1B6120C043012E08DB2E789E4204D1681CBA
:2034CC0020602046FEF7ECFE70BD801C70BDB0B504460020002B09D0D2B20D7825709542DD
:2034EC0005D0641C5B1E491C002BF6D1B0BD601CB0BD0000074880F3088800BF00BF00F085
:20350C0059FA002801D0FFF7ADFD00F067F80120FFF7D8FE0090002030B514004C4325001A
:20352C001C0044436419050010002900FFF7B8FD001904000D002100280030BD10B5002A27
:20354C000BD00C780378A34205D1521E401C491C002AF6D11C46181B10BD002010BDB0B5F4
:20356C0004C90023036043600830531C01249C4203D220C920C0641CF9E71046B0BDA06AD4
:20358C00E16FCA0010188A0080182278921E059B93405B1D4A1C534399007047B0B50024B1
:2035AC0045787F2D06D14068411810461A4600F0EFF900E0E4432046B0BD000018B5202346
:2035CC009B1A04D8010000205B42994004E004009140DC402143904018BD000080B5002084
:2035EC00044A002A014601D001CA1146FFF796FA80BDC046B43D0000054A1368002B06D088
:20360C0011461A4608328342F7D18068086070479023002001208103044A13680B43136017
:20362C00C0031168014311607047C046003502400B4611461A4680B500F046F980BDC046AA
:20364C000A46002180B500F03FF980BDB0B50023002A05D010C820C965402B43521EF7E7AA
:20366C0058425841B0BD10B5C36F08C10024C36F9C4203D208CA08C1641CF8E7184610BDB0
:20368C0010B50C780378A34205D1521E401C491C002AF6D11C46181B10BD000080B501469F
:2036AC00024802680248904780BDC0468000000FC022002080B50348026803480021904728
:2036CC0080BDC0467800000FC022002080B50A460146024803680248984780BD7C00000FA0
:2036EC00C0220020044C30342146FEF72BFB2046FFF772F800F060F994230020B0B51446E1
:20370C000D460146286800F043F92868001928602046B0BD10B504C91346002B03D010C981
:20372C0010C05B1EF9E7104610BD04C10122C36F5B1C9A4203D2002308C1521CF7E7704700
:20374C000022002903D008C81A43491EF9E750425041704703494143002902D000BF491E00
:20376C00FAE77047AA0F000080B50A4602490B680021984780BDC046AC3D00000322805880
:20378C00002804D000220A70491C401EF8E7704740B584B002AE0096FEF72CFE029A039B64
:2037AC0004B040BD02988000A16F0A58D2430A500298401C7047A06AE16FCA0010188A00CE
:2037CC0080184A1CD100704710B500239A4203D0CC5CC4545B1CF9E710BD80B50B460321B2
:2037EC004258C11D184600F0D3F880BDA26FE06F8000295882185268002A704780B50146DD
:20380C000148FDF7FBFB80BD2823002040787F38022801D300207047FF2070470120800303
:20382C00014908607047C04610320240EFF3108072B6FFF7A9FDFFF75DFEFEE7002A03D020
:20384C0008C908C0521EF9E7704738463268910078186D1C27787047A36FE16F206FE26D64
:20386C000091D2197047002903D0002204C0491EF9E77047032802D30020C0437047401CF3
:20388C007047032902D30020C0437047481C70470A780270401C491C002AF9D170470021EE
:2038AC00425C491C002AFBD1481E70470021425C491C002AFBD1481E70470021425C491C8B
:2038CC00002AFBD1481E704700239A4202D0C1545B1CFAE770474019001F0068524200233D
:2038EC0056E7A26F0832204629462B4600E0000082B00094014C019410BD00BFE9260000CB
:20390C0080B501460820FEF703F880BD801C61412A463B4600E69259A36FE76F0097704714
:20392C009259A36FE56F0095704705460F46029A3346F1E50A68531C0B6010707047216E41
:20394C00E06E009600E0000082B00094014C019410BD00BF25090000204629462A46FFE70A
:20396C0082B00094014C019410BD00BF912E0000802280580860704780B5FFF7DFFD80BD6B
:20398C0080B5FEF75FFF80BD80B5FFF713FD80BD80B5FFF719FF80BD06C0704700687047C2
:1C39AC000095FFE782B00094014C019410BD00BF810700000120704700BFFEE74C
:2039C8000001020304000102030400010203040001020304000102030400010203040001A2
:2039E800020304000102030400010203040001020304000102030400010203040101010180
:203A080001020202020203030303030404040404000001020300000102030000010203005E
:203A28000001020300010203040001020304000102030400010203047263203D3D20300091
:203A4800433A2F74692F73696D706C656C696E6B5F6C6F77706F7765725F66335F73646BF7
:203A68005F375F32305F30305F32392F736F757263652F74686972645F70617274792F6D29
:203A88006375626F6F742F626F6F742F626F6F747574696C2F7372632F6C6F616465722EC3
:203AA80063003059301306072A8648CE3D020106082A8648CE3D030107034200042ACB4022
:203AC8003CE8FEED5BA44995A1A91DAEE8DBBE1937CD14FB2F245737E5953988D994B9D618
:203AE8005AEBD7CDD5308AD6FE48B24A6A810EE5F07D8B6834CC3A6AFC538EFAC16D616C7A
:203B08006C6F63206661696C656420696E2061737365727400417373657274696F6E2066F3
:203B280061696C65642C20282573292C2066696C652025732C206C696E652025640A002ED0
:203B4800000000000000000101010101020202020202020202020303030303030303030326
:203B68000405040404040504040404050404040405040404000000000001010101010000E4
:203B880008000000FCFFFFFFFFFFFFFFFFFFFFFF0000000000000000000000000100000023
:203BA800FFFFFFFFFCFFFFFFFFFFFFFFFFFFFFFF0300000000000000000000000400000009
:203BC800FCFFFFFF00000000080000004B60D2273E3CCE3BF6B053CCB0061D65BC86987668
:203BE80055BDEBB3E7933AAAD835C65ADFBDC42962DF9CD890308478CD05F0ACD62E21F7FE
:203C0800AB20A2E5344887041D0630DC000000000800000096C298D84539A1F4A033EB2D46
:203C2800817D0377F240A463E5E6BCF847422CE1F2D1176B08000000F551BF376840B6CB04
:203C4800CE5E316B5733CE2B169E0F7C4AEBE78E9B7F1AFEE242E34F03000000000000009D
:203C6800FFFFFFFFFBFFFFFFFEFFFFFFFFFFFFFFFDFFFFFF0400000000000000080000004B
:203C8800512563FCC2CAB9F3849E17A7ADFAE6BCFFFFFFFFFFFFFFFF00000000FFFFFFFFF2
:203CA80008000000FFFFFFFFFFFFFFFFFFFFFFFF00000000000000000000000001000000FF
:203CC800FFFFFFFF3031323334353637383961626364656600303132333435363738394130
:203CE80042434445460000010001000100010001000100000101000100010001000101015A
:203D0800010100000000000000000000000000000000020304050000000000010100000089
:203D2800000000000000000000000000000000010001000001010001000100010001000172
:203D48000001000100010000603D00006C3D0000783D000000000000007F000000000000DE
:203D680000600000017F00000060000000C00200027F00000020030000A004002A8648CE2B
:203D88003D03010700000000AA3A0000B03D00002A8648CE3D0201000303010203030000ED
:0C3DA80001000000D53800005B000000A6
:083DB400000000000000000007
:203DBC00005500000F0112014001018F012202C0E502030F0124044F02013F8F010200F183
:203DDC00FF2B0000DD2E00004DEF2C0000A500302929003F00252F00009100700D2F3E0FE6
:203DFC0084240020007515B100F114BF025214AF1EFF00001C31031C80DB0CB002003100F6
:203E1C00FFF00000F9290000E7370000893700000200000094030000BC3D0000942300202E
:083E3C002C3E000000200020D4
:020000044E02AA
:20000000FFFFFFFF000000000000000000000000FFFFFFFFFFFFFFFFAAAAAAAA0F00000035
:20002000FFFFFFFFFFFFFFFF00000000FFFFFFFF00000000000000000000000000000000CC
:200040000000000000000000000000000000000000000000000000000000000000000000A0
:20006000000000000000000000000000000000000000000000000000000000000000000080
:20008000000000000000000000000000000000000000000000000000000000000000000060
:2000A000000000000000000000000000000000000000000000000000000000000000000040
:2007C000000000000000000000000000000000005AA500000101020305080D156DD7E43686
:2007E000EBF431DF95AE15EE03BA8EE4C4C63FD8453F675E74D7C2012C9058E500000000A4
:00000001FF
